{
  "_format": "hh-sol-artifact-1",
  "contractName": "PaymentGuarantor",
  "sourceName": "contracts/PaymentGuarantor.sol",
  "abi": [
    {
      "inputs": [
        {
          "internalType": "address",
          "name": "_subscriptionManager",
          "type": "address"
        },
        {
          "internalType": "uint256",
          "name": "_feeBps",
          "type": "uint256"
        },
        {
          "internalType": "uint256",
          "name": "_maxGuaranteeTtlSeconds",
          "type": "uint256"
        },
        {
          "internalType": "address",
          "name": "admin",
          "type": "address"
        }
      ],
      "stateMutability": "nonpayable",
      "type": "constructor"
    },
    {
      "inputs": [],
      "name": "AccessControlBadConfirmation",
      "type": "error"
    },
    {
      "inputs": [
        {
          "internalType": "address",
          "name": "account",
          "type": "address"
        },
        {
          "internalType": "bytes32",
          "name": "neededRole",
          "type": "bytes32"
        }
      ],
      "name": "AccessControlUnauthorizedAccount",
      "type": "error"
    },
    {
      "inputs": [],
      "name": "AlreadyFinalized",
      "type": "error"
    },
    {
      "inputs": [],
      "name": "EnforcedPause",
      "type": "error"
    },
    {
      "inputs": [],
      "name": "ExpectedPause",
      "type": "error"
    },
    {
      "inputs": [],
      "name": "GuaranteeExpired",
      "type": "error"
    },
    {
      "inputs": [],
      "name": "GuaranteeInactive",
      "type": "error"
    },
    {
      "inputs": [],
      "name": "GuaranteeNotFound",
      "type": "error"
    },
    {
      "inputs": [],
      "name": "InsufficientLiquidity",
      "type": "error"
    },
    {
      "inputs": [],
      "name": "InvalidAddress",
      "type": "error"
    },
    {
      "inputs": [],
      "name": "InvalidAmount",
      "type": "error"
    },
    {
      "inputs": [],
      "name": "NotGuaranteeOwner",
      "type": "error"
    },
    {
      "inputs": [],
      "name": "ReentrancyGuardReentrantCall",
      "type": "error"
    },
    {
      "inputs": [],
      "name": "RefundFailed",
      "type": "error"
    },
    {
      "inputs": [],
      "name": "RepayValueTooLow",
      "type": "error"
    },
    {
      "inputs": [],
      "name": "SubscriptionInactive",
      "type": "error"
    },
    {
      "inputs": [],
      "name": "WithdrawalExceedsFreeLiquidity",
      "type": "error"
    },
    {
      "anonymous": false,
      "inputs": [
        {
          "indexed": true,
          "internalType": "bytes32",
          "name": "guaranteeId",
          "type": "bytes32"
        },
        {
          "indexed": true,
          "internalType": "address",
          "name": "cancelledBy",
          "type": "address"
        }
      ],
      "name": "GuaranteeCancelled",
      "type": "event"
    },
    {
      "anonymous": false,
      "inputs": [
        {
          "indexed": true,
          "internalType": "bytes32",
          "name": "guaranteeId",
          "type": "bytes32"
        },
        {
          "indexed": true,
          "internalType": "address",
          "name": "agent",
          "type": "address"
        },
        {
          "indexed": true,
          "internalType": "address",
          "name": "recipient",
          "type": "address"
        },
        {
          "indexed": false,
          "internalType": "uint256",
          "name": "amountWei",
          "type": "uint256"
        },
        {
          "indexed": false,
          "internalType": "uint256",
          "name": "feeWei",
          "type": "uint256"
        },
        {
          "indexed": false,
          "internalType": "uint256",
          "name": "expiresAt",
          "type": "uint256"
        }
      ],
      "name": "GuaranteeCreated",
      "type": "event"
    },
    {
      "anonymous": false,
      "inputs": [
        {
          "indexed": true,
          "internalType": "bytes32",
          "name": "guaranteeId",
          "type": "bytes32"
        },
        {
          "indexed": true,
          "internalType": "address",
          "name": "payer",
          "type": "address"
        },
        {
          "indexed": false,
          "internalType": "uint256",
          "name": "paidWei",
          "type": "uint256"
        }
      ],
      "name": "GuaranteeRepaid",
      "type": "event"
    },
    {
      "anonymous": false,
      "inputs": [
        {
          "indexed": true,
          "internalType": "bytes32",
          "name": "guaranteeId",
          "type": "bytes32"
        },
        {
          "indexed": true,
          "internalType": "bytes32",
          "name": "x402PayloadHash",
          "type": "bytes32"
        },
        {
          "indexed": true,
          "internalType": "address",
          "name": "verifier",
          "type": "address"
        }
      ],
      "name": "GuaranteeUsed",
      "type": "event"
    },
    {
      "anonymous": false,
      "inputs": [
        {
          "indexed": false,
          "internalType": "address",
          "name": "account",
          "type": "address"
        }
      ],
      "name": "Paused",
      "type": "event"
    },
    {
      "anonymous": false,
      "inputs": [
        {
          "indexed": true,
          "internalType": "address",
          "name": "funder",
          "type": "address"
        },
        {
          "indexed": false,
          "internalType": "uint256",
          "name": "amountWei",
          "type": "uint256"
        },
        {
          "indexed": false,
          "internalType": "uint256",
          "name": "poolBalance",
          "type": "uint256"
        }
      ],
      "name": "PoolFunded",
      "type": "event"
    },
    {
      "anonymous": false,
      "inputs": [
        {
          "indexed": true,
          "internalType": "address",
          "name": "to",
          "type": "address"
        },
        {
          "indexed": false,
          "internalType": "uint256",
          "name": "amountWei",
          "type": "uint256"
        },
        {
          "indexed": false,
          "internalType": "uint256",
          "name": "poolBalance",
          "type": "uint256"
        }
      ],
      "name": "PoolWithdrawn",
      "type": "event"
    },
    {
      "anonymous": false,
      "inputs": [
        {
          "indexed": true,
          "internalType": "bytes32",
          "name": "role",
          "type": "bytes32"
        },
        {
          "indexed": true,
          "internalType": "bytes32",
          "name": "previousAdminRole",
          "type": "bytes32"
        },
        {
          "indexed": true,
          "internalType": "bytes32",
          "name": "newAdminRole",
          "type": "bytes32"
        }
      ],
      "name": "RoleAdminChanged",
      "type": "event"
    },
    {
      "anonymous": false,
      "inputs": [
        {
          "indexed": true,
          "internalType": "bytes32",
          "name": "role",
          "type": "bytes32"
        },
        {
          "indexed": true,
          "internalType": "address",
          "name": "account",
          "type": "address"
        },
        {
          "indexed": true,
          "internalType": "address",
          "name": "sender",
          "type": "address"
        }
      ],
      "name": "RoleGranted",
      "type": "event"
    },
    {
      "anonymous": false,
      "inputs": [
        {
          "indexed": true,
          "internalType": "bytes32",
          "name": "role",
          "type": "bytes32"
        },
        {
          "indexed": true,
          "internalType": "address",
          "name": "account",
          "type": "address"
        },
        {
          "indexed": true,
          "internalType": "address",
          "name": "sender",
          "type": "address"
        }
      ],
      "name": "RoleRevoked",
      "type": "event"
    },
    {
      "anonymous": false,
      "inputs": [
        {
          "indexed": false,
          "internalType": "address",
          "name": "account",
          "type": "address"
        }
      ],
      "name": "Unpaused",
      "type": "event"
    },
    {
      "inputs": [],
      "name": "DEFAULT_ADMIN_ROLE",
      "outputs": [
        {
          "internalType": "bytes32",
          "name": "",
          "type": "bytes32"
        }
      ],
      "stateMutability": "view",
      "type": "function"
    },
    {
      "inputs": [],
      "name": "TREASURY_ROLE",
      "outputs": [
        {
          "internalType": "bytes32",
          "name": "",
          "type": "bytes32"
        }
      ],
      "stateMutability": "view",
      "type": "function"
    },
    {
      "inputs": [],
      "name": "VERIFIER_ROLE",
      "outputs": [
        {
          "internalType": "bytes32",
          "name": "",
          "type": "bytes32"
        }
      ],
      "stateMutability": "view",
      "type": "function"
    },
    {
      "inputs": [
        {
          "internalType": "bytes32",
          "name": "guaranteeId",
          "type": "bytes32"
        }
      ],
      "name": "cancelGuarantee",
      "outputs": [],
      "stateMutability": "nonpayable",
      "type": "function"
    },
    {
      "inputs": [
        {
          "internalType": "bytes32",
          "name": "guaranteeId",
          "type": "bytes32"
        }
      ],
      "name": "checkGuarantee",
      "outputs": [
        {
          "internalType": "bool",
          "name": "active",
          "type": "bool"
        },
        {
          "internalType": "bool",
          "name": "used",
          "type": "bool"
        },
        {
          "internalType": "bool",
          "name": "cancelled",
          "type": "bool"
        },
        {
          "internalType": "bool",
          "name": "repaid",
          "type": "bool"
        },
        {
          "internalType": "uint256",
          "name": "expiresAt",
          "type": "uint256"
        },
        {
          "internalType": "bytes32",
          "name": "payloadHash",
          "type": "bytes32"
        }
      ],
      "stateMutability": "view",
      "type": "function"
    },
    {
      "inputs": [
        {
          "internalType": "address",
          "name": "recipient",
          "type": "address"
        },
        {
          "internalType": "uint256",
          "name": "amountWei",
          "type": "uint256"
        },
        {
          "internalType": "uint256",
          "name": "ttlSeconds",
          "type": "uint256"
        }
      ],
      "name": "createGuarantee",
      "outputs": [
        {
          "internalType": "bytes32",
          "name": "guaranteeId",
          "type": "bytes32"
        }
      ],
      "stateMutability": "nonpayable",
      "type": "function"
    },
    {
      "inputs": [],
      "name": "feeBps",
      "outputs": [
        {
          "internalType": "uint256",
          "name": "",
          "type": "uint256"
        }
      ],
      "stateMutability": "view",
      "type": "function"
    },
    {
      "inputs": [],
      "name": "freeLiquidityWei",
      "outputs": [
        {
          "internalType": "uint256",
          "name": "",
          "type": "uint256"
        }
      ],
      "stateMutability": "view",
      "type": "function"
    },
    {
      "inputs": [],
      "name": "fundPool",
      "outputs": [],
      "stateMutability": "payable",
      "type": "function"
    },
    {
      "inputs": [
        {
          "internalType": "bytes32",
          "name": "role",
          "type": "bytes32"
        }
      ],
      "name": "getRoleAdmin",
      "outputs": [
        {
          "internalType": "bytes32",
          "name": "",
          "type": "bytes32"
        }
      ],
      "stateMutability": "view",
      "type": "function"
    },
    {
      "inputs": [
        {
          "internalType": "bytes32",
          "name": "role",
          "type": "bytes32"
        },
        {
          "internalType": "address",
          "name": "account",
          "type": "address"
        }
      ],
      "name": "grantRole",
      "outputs": [],
      "stateMutability": "nonpayable",
      "type": "function"
    },
    {
      "inputs": [
        {
          "internalType": "address",
          "name": "",
          "type": "address"
        }
      ],
      "name": "guaranteeNonce",
      "outputs": [
        {
          "internalType": "uint256",
          "name": "",
          "type": "uint256"
        }
      ],
      "stateMutability": "view",
      "type": "function"
    },
    {
      "inputs": [
        {
          "internalType": "bytes32",
          "name": "",
          "type": "bytes32"
        }
      ],
      "name": "guarantees",
      "outputs": [
        {
          "internalType": "address",
          "name": "agent",
          "type": "address"
        },
        {
          "internalType": "address",
          "name": "recipient",
          "type": "address"
        },
        {
          "internalType": "uint256",
          "name": "amountWei",
          "type": "uint256"
        },
        {
          "internalType": "uint256",
          "name": "feeWei",
          "type": "uint256"
        },
        {
          "internalType": "uint256",
          "name": "createdAt",
          "type": "uint256"
        },
        {
          "internalType": "uint256",
          "name": "expiresAt",
          "type": "uint256"
        },
        {
          "internalType": "bool",
          "name": "active",
          "type": "bool"
        },
        {
          "internalType": "bool",
          "name": "used",
          "type": "bool"
        },
        {
          "internalType": "bool",
          "name": "cancelled",
          "type": "bool"
        },
        {
          "internalType": "bool",
          "name": "repaid",
          "type": "bool"
        },
        {
          "internalType": "bytes32",
          "name": "x402PayloadHash",
          "type": "bytes32"
        }
      ],
      "stateMutability": "view",
      "type": "function"
    },
    {
      "inputs": [
        {
          "internalType": "bytes32",
          "name": "role",
          "type": "bytes32"
        },
        {
          "internalType": "address",
          "name": "account",
          "type": "address"
        }
      ],
      "name": "hasRole",
      "outputs": [
        {
          "internalType": "bool",
          "name": "",
          "type": "bool"
        }
      ],
      "stateMutability": "view",
      "type": "function"
    },
    {
      "inputs": [
        {
          "internalType": "bytes32",
          "name": "guaranteeId",
          "type": "bytes32"
        },
        {
          "internalType": "bytes32",
          "name": "x402PayloadHash",
          "type": "bytes32"
        }
      ],
      "name": "markGuaranteeUsed",
      "outputs": [],
      "stateMutability": "nonpayable",
      "type": "function"
    },
    {
      "inputs": [],
      "name": "maxGuaranteeTtlSeconds",
      "outputs": [
        {
          "internalType": "uint256",
          "name": "",
          "type": "uint256"
        }
      ],
      "stateMutability": "view",
      "type": "function"
    },
    {
      "inputs": [
        {
          "internalType": "address",
          "name": "",
          "type": "address"
        }
      ],
      "name": "outstandingByAgent",
      "outputs": [
        {
          "internalType": "uint256",
          "name": "",
          "type": "uint256"
        }
      ],
      "stateMutability": "view",
      "type": "function"
    },
    {
      "inputs": [],
      "name": "pause",
      "outputs": [],
      "stateMutability": "nonpayable",
      "type": "function"
    },
    {
      "inputs": [],
      "name": "paused",
      "outputs": [
        {
          "internalType": "bool",
          "name": "",
          "type": "bool"
        }
      ],
      "stateMutability": "view",
      "type": "function"
    },
    {
      "inputs": [
        {
          "internalType": "bytes32",
          "name": "role",
          "type": "bytes32"
        },
        {
          "internalType": "address",
          "name": "callerConfirmation",
          "type": "address"
        }
      ],
      "name": "renounceRole",
      "outputs": [],
      "stateMutability": "nonpayable",
      "type": "function"
    },
    {
      "inputs": [
        {
          "internalType": "bytes32",
          "name": "guaranteeId",
          "type": "bytes32"
        }
      ],
      "name": "repayGuarantee",
      "outputs": [],
      "stateMutability": "payable",
      "type": "function"
    },
    {
      "inputs": [
        {
          "internalType": "bytes32",
          "name": "role",
          "type": "bytes32"
        },
        {
          "internalType": "address",
          "name": "account",
          "type": "address"
        }
      ],
      "name": "revokeRole",
      "outputs": [],
      "stateMutability": "nonpayable",
      "type": "function"
    },
    {
      "inputs": [
        {
          "internalType": "uint256",
          "name": "newFeeBps",
          "type": "uint256"
        }
      ],
      "name": "setFeeBps",
      "outputs": [],
      "stateMutability": "nonpayable",
      "type": "function"
    },
    {
      "inputs": [],
      "name": "subscriptionManager",
      "outputs": [
        {
          "internalType": "contract ISubscriptionManager",
          "name": "",
          "type": "address"
        }
      ],
      "stateMutability": "view",
      "type": "function"
    },
    {
      "inputs": [
        {
          "internalType": "bytes4",
          "name": "interfaceId",
          "type": "bytes4"
        }
      ],
      "name": "supportsInterface",
      "outputs": [
        {
          "internalType": "bool",
          "name": "",
          "type": "bool"
        }
      ],
      "stateMutability": "view",
      "type": "function"
    },
    {
      "inputs": [],
      "name": "totalOutstandingWei",
      "outputs": [
        {
          "internalType": "uint256",
          "name": "",
          "type": "uint256"
        }
      ],
      "stateMutability": "view",
      "type": "function"
    },
    {
      "inputs": [],
      "name": "unpause",
      "outputs": [],
      "stateMutability": "nonpayable",
      "type": "function"
    },
    {
      "inputs": [
        {
          "internalType": "address payable",
          "name": "to",
          "type": "address"
        },
        {
          "internalType": "uint256",
          "name": "amountWei",
          "type": "uint256"
        }
      ],
      "name": "withdrawPool",
      "outputs": [],
      "stateMutability": "nonpayable",
      "type": "function"
    },
    {
      "stateMutability": "payable",
      "type": "receive"
    }
  ],
  "bytecode": "0x60c06040523480156200001157600080fd5b5060405162001bc038038062001bc0833981016040819052620000349162000230565b60017f9b779b17422d0df92223018b32b4d1fa46e071723d6817e2486d003becc55f00556001600160a01b03841615806200007657506001600160a01b038116155b15620000955760405163e6c4247b60e01b815260040160405180910390fd5b611388831115620000b95760405163162908e360e11b815260040160405180910390fd5b81600003620000db5760405163162908e360e11b815260040160405180910390fd5b6001600160a01b038416608052600283905560a0829052620000ff60008262000164565b506200012c7fe1dcbdb91df27212a29bc27177c840cf2f819ecf2187432e1fac86c2dd5dfca98262000164565b50620001597f0ce23c3e399818cfee81a7ab0880f714e53d7672b08df0fa62f2843416e1ea098262000164565b50505050506200027b565b6000828152602081815260408083206001600160a01b038516845290915281205460ff1662000209576000838152602081815260408083206001600160a01b03861684529091529020805460ff19166001179055620001c03390565b6001600160a01b0316826001600160a01b0316847f2f8788117e7eff1d82e926ec794901d17c78024a50270940304540a733656f0d60405160405180910390a45060016200020d565b5060005b92915050565b80516001600160a01b03811681146200022b57600080fd5b919050565b600080600080608085870312156200024757600080fd5b620002528562000213565b93506020850151925060408501519150620002706060860162000213565b905092959194509250565b60805160a051611911620002af60003960008181610276015261076a0152600081816105e801526107c201526119116000f3fe6080604052600436106101bb5760003560e01c806370f37d27116100ec578063a85214951161008a578063c700678b11610064578063c700678b14610622578063d11a57ec1461064f578063d547741f14610683578063e7705db6146106a357600080fd5b8063a85214951461055f578063b75a0b181461057f578063bf158fd2146105d657600080fd5b80638456cb59116100c65780638456cb59146104f557806391d148541461050a578063a217fddf1461052a578063a2f8859d1461053f57600080fd5b806370f37d27146104ad57806372c27b62146104b55780637c4304ff146104d557600080fd5b80632f2ff15d116101595780634bad6549116101335780634bad654914610375578063508e61141461038a5780635c975abb146103a05780636557fdfe146103b857600080fd5b80632f2ff15d1461032057806336568abe146103405780633f4ba83a1461036057600080fd5b80630de89f67116101955780630de89f67146102985780632074f533146102c5578063248a9ca3146102da57806324a9d8531461030a57600080fd5b806301ffc9a7146102015780630a62b100146102365780630d98f3a81461026457600080fd5b366101fc576040805134815247602082015233917fce66f10ae4269ec7bfd83e4659aed202bd4efb93d241bae453642969c2f079d3910160405180910390a2005b600080fd5b34801561020d57600080fd5b5061022161021c3660046116dc565b6106d7565b60405190151581526020015b60405180910390f35b34801561024257600080fd5b50610256610251366004611722565b61070e565b60405190815260200161022d565b34801561027057600080fd5b506102567f000000000000000000000000000000000000000000000000000000000000000081565b3480156102a457600080fd5b506102566102b3366004611757565b60066020526000908152604090205481565b6102d86102d3366004611774565b610b6f565b005b3480156102e657600080fd5b506102566102f5366004611774565b60009081526020819052604090206001015490565b34801561031657600080fd5b5061025660025481565b34801561032c57600080fd5b506102d861033b36600461178d565b610d7c565b34801561034c57600080fd5b506102d861035b36600461178d565b610da7565b34801561036c57600080fd5b506102d8610ddf565b34801561038157600080fd5b50610256610df2565b34801561039657600080fd5b5061025660035481565b3480156103ac57600080fd5b5060015460ff16610221565b3480156103c457600080fd5b506104476103d3366004611774565b6005602081905260009182526040909120805460018201546002830154600384015460048501549585015460068601546007909601546001600160a01b039586169794909516959294919392909160ff8083169261010081048216926201000082048316926301000000909204909116908b565b604080516001600160a01b039c8d1681529b909a1660208c0152988a01979097526060890195909552608088019390935260a0870191909152151560c0860152151560e0850152151561010084015215156101208301526101408201526101600161022d565b6102d8610e15565b3480156104c157600080fd5b506102d86104d0366004611774565b610e7a565b3480156104e157600080fd5b506102d86104f03660046117bd565b610eae565b34801561050157600080fd5b506102d861102c565b34801561051657600080fd5b5061022161052536600461178d565b61103f565b34801561053657600080fd5b50610256600081565b34801561054b57600080fd5b506102d861055a366004611774565b611068565b34801561056b57600080fd5b506102d861057a3660046117e9565b611236565b34801561058b57600080fd5b5061059f61059a366004611774565b611334565b60408051961515875294151560208701529215159385019390935215156060840152608083019190915260a082015260c00161022d565b3480156105e257600080fd5b5061060a7f000000000000000000000000000000000000000000000000000000000000000081565b6040516001600160a01b03909116815260200161022d565b34801561062e57600080fd5b5061025661063d366004611757565b60046020526000908152604090205481565b34801561065b57600080fd5b506102567fe1dcbdb91df27212a29bc27177c840cf2f819ecf2187432e1fac86c2dd5dfca981565b34801561068f57600080fd5b506102d861069e36600461178d565b611451565b3480156106af57600080fd5b506102567f0ce23c3e399818cfee81a7ab0880f714e53d7672b08df0fa62f2843416e1ea0981565b60006001600160e01b03198216637965db0b60e01b148061070857506301ffc9a760e01b6001600160e01b03198316145b92915050565b6000610718611476565b6001600160a01b03841661073f5760405163e6c4247b60e01b815260040160405180910390fd5b826000036107605760405163162908e360e11b815260040160405180910390fd5b81158061078c57507f000000000000000000000000000000000000000000000000000000000000000082115b156107aa5760405163162908e360e11b815260040160405180910390fd5b604051639f8a13d760e01b81523360048201526000907f00000000000000000000000000000000000000000000000000000000000000006001600160a01b031690639f8a13d790602401602060405180830381865afa158015610811573d6000803e3d6000fd5b505050506040513d601f19601f82011682018060405250810190610835919061180b565b905080610855576040516349e541ff60e11b815260040160405180910390fd5b61085d610df2565b84111561087d5760405163bb55fd2760e01b815260040160405180910390fd5b6000612710600254866108909190611843565b61089a919061185a565b905060006108a8854261187c565b336000818152600660205260408120805493945091928a928a928a92469290916108d18361188f565b909155506040516bffffffffffffffffffffffff19606097881b811660208301529590961b909416603486015260488501929092526068840152608883015260a882015260c801604051602081830303815290604052805190602001209350604051806101600160405280336001600160a01b03168152602001886001600160a01b031681526020018781526020018381526020014281526020018281526020016001151581526020016000151581526020016000151581526020016000151581526020016000801b8152506005600086815260200190815260200160002060008201518160000160006101000a8154816001600160a01b0302191690836001600160a01b0316021790555060208201518160010160006101000a8154816001600160a01b0302191690836001600160a01b0316021790555060408201518160020155606082015181600301556080820151816004015560a0820151816005015560c08201518160060160006101000a81548160ff02191690831515021790555060e08201518160060160016101000a81548160ff0219169083151502179055506101008201518160060160026101000a81548160ff0219169083151502179055506101208201518160060160036101000a81548160ff02191690831515021790555061014082015181600701559050508560046000336001600160a01b03166001600160a01b031681526020019081526020016000206000828254610af7919061187c565b925050819055508560036000828254610b10919061187c565b909155505060408051878152602081018490529081018290526001600160a01b03881690339086907f83eef40adf2122746b64a9b7422a805e3e80e5449a4eb10f14aebec41f72cc4d9060600160405180910390a45050509392505050565b610b77611476565b610b7f61149c565b600081815260056020526040902080546001600160a01b0316610bb55760405163106c26d160e21b815260040160405180910390fd5b6006810154610100900460ff16610bdf57604051633a3287af60e21b815260040160405180910390fd5b60068101546301000000900460ff1615610c0c5760405163475a253560e01b815260040160405180910390fd5b600081600301548260020154610c22919061187c565b905080341015610c4457604051621cd49360e91b815260040160405180910390fd5b60068201805463ff00000019166301000000179055600282015482546001600160a01b031660009081526004602052604081208054909190610c879084906118a8565b9091555050600282015460038054600090610ca39084906118a8565b9091555060009050610cb582346118a8565b90508015610d2857604051600090339083908381818185875af1925050503d8060008114610cff576040519150601f19603f3d011682016040523d82523d6000602084013e610d04565b606091505b5050905080610d2657604051633c31275160e21b815260040160405180910390fd5b505b604051828152339085907ffe954b7e50973a20e60569a45457786414f0e5cf7e1c2311ad6965890cb7b4e99060200160405180910390a3505050610d7960016000805160206118bc83398151915255565b50565b600082815260208190526040902060010154610d97816114b8565b610da183836114c2565b50505050565b6001600160a01b0381163314610dd05760405163334bd91960e11b815260040160405180910390fd5b610dda8282611554565b505050565b6000610dea816114b8565b610d796115bf565b60006003544711610e035750600090565b600354610e1090476118a8565b905090565b610e1d611476565b34600003610e3e5760405163162908e360e11b815260040160405180910390fd5b6040805134815247602082015233917fce66f10ae4269ec7bfd83e4659aed202bd4efb93d241bae453642969c2f079d3910160405180910390a2565b6000610e85816114b8565b611388821115610ea85760405163162908e360e11b815260040160405180910390fd5b50600255565b610eb6611476565b610ebe61149c565b7fe1dcbdb91df27212a29bc27177c840cf2f819ecf2187432e1fac86c2dd5dfca9610ee8816114b8565b6001600160a01b038316610f0f5760405163e6c4247b60e01b815260040160405180910390fd5b81600003610f305760405163162908e360e11b815260040160405180910390fd5b610f38610df2565b821115610f585760405163a6c5a3bd60e01b815260040160405180910390fd5b6000836001600160a01b03168360405160006040518083038185875af1925050503d8060008114610fa5576040519150601f19603f3d011682016040523d82523d6000602084013e610faa565b606091505b5050905080610fcc57604051633c31275160e21b815260040160405180910390fd5b604080518481524760208201526001600160a01b038616917f4e263f66e088b39f0d0855a71de61fdd97a363015db80b9b27791e61c1feb323910160405180910390a2505061102860016000805160206118bc83398151915255565b5050565b6000611037816114b8565b610d79611611565b6000918252602082815260408084206001600160a01b0393909316845291905290205460ff1690565b611070611476565b600081815260056020526040902080546001600160a01b03166110a65760405163106c26d160e21b815260040160405180910390fd5b600681015460ff166110cb57604051633a3287af60e21b815260040160405180910390fd5b6006810154610100900460ff16806110ee575060068101546301000000900460ff165b1561110c5760405163475a253560e01b815260040160405180910390fd5b42816005015411611130576040516309f3c8e960e41b815260040160405180910390fd5b80546001600160a01b03163314801590611171575061116f7f0ce23c3e399818cfee81a7ab0880f714e53d7672b08df0fa62f2843416e1ea093361103f565b155b8015611185575061118360003361103f565b155b156111a3576040516319b7f64b60e11b815260040160405180910390fd5b60068101805462ff00ff191662010000179055600281015481546001600160a01b0316600090815260046020526040812080549091906111e49084906118a8565b90915550506002810154600380546000906112009084906118a8565b9091555050604051339083907f2445ef187e2c65eb729546f42c15c8a642e7e9cdf5f1e95de6955422774f9ee590600090a35050565b61123e611476565b7f0ce23c3e399818cfee81a7ab0880f714e53d7672b08df0fa62f2843416e1ea09611268816114b8565b600083815260056020526040902080546001600160a01b031661129e5760405163106c26d160e21b815260040160405180910390fd5b600681015460ff166112c357604051633a3287af60e21b815260040160405180910390fd5b428160050154116112e7576040516309f3c8e960e41b815260040160405180910390fd5b60068101805461ffff1916610100179055600781018390556040513390849086907ff875e4e76d34680c87aa9a7fd226d6c192f2155d7f0279d0b60d5f23e1726c0490600090a450505050565b600081815260056020818152604080842081516101608101835281546001600160a01b0390811680835260018401549091169482019490945260028201549281019290925260038101546060830152600481015460808301529283015460a0820152600683015460ff808216151560c08401526101008083048216151560e085015262010000830482161515908401526301000000909104161515610120820152600790920154610140830152829182918291829182919061140a57506000955085945060019350849250829150819050611448565b8060c00151801561141e5750428160a00151115b96508060e001519550806101000151945080610120015193508060a0015192508061014001519150505b91939550919395565b60008281526020819052604090206001015461146c816114b8565b610da18383611554565b60015460ff161561149a5760405163d93c066560e01b815260040160405180910390fd5b565b6114a461164c565b60026000805160206118bc83398151915255565b610d79813361167c565b60006114ce838361103f565b61154c576000838152602081815260408083206001600160a01b03861684529091529020805460ff191660011790556115043390565b6001600160a01b0316826001600160a01b0316847f2f8788117e7eff1d82e926ec794901d17c78024a50270940304540a733656f0d60405160405180910390a4506001610708565b506000610708565b6000611560838361103f565b1561154c576000838152602081815260408083206001600160a01b0386168085529252808320805460ff1916905551339286917ff6391f5c32d9c69d2a47ea670b442974b53935d1edc7fd64eb21e047a839171b9190a4506001610708565b6115c76116b9565b6001805460ff191690557f5db9ee0a495bf2e6ff9c91a7834c1ba4fdd244a5e8aa4e537bd38aeae4b073aa335b6040516001600160a01b03909116815260200160405180910390a1565b611619611476565b6001805460ff1916811790557f62e78cea01bee320cd4e420270b5ea74000d11b0c9f74754ebdbfc544b05a258336115f4565b6000805160206118bc8339815191525460020361149a57604051633ee5aeb560e01b815260040160405180910390fd5b611686828261103f565b6110285760405163e2517d3f60e01b81526001600160a01b03821660048201526024810183905260440160405180910390fd5b60015460ff1661149a57604051638dfc202b60e01b815260040160405180910390fd5b6000602082840312156116ee57600080fd5b81356001600160e01b03198116811461170657600080fd5b9392505050565b6001600160a01b0381168114610d7957600080fd5b60008060006060848603121561173757600080fd5b83356117428161170d565b95602085013595506040909401359392505050565b60006020828403121561176957600080fd5b81356117068161170d565b60006020828403121561178657600080fd5b5035919050565b600080604083850312156117a057600080fd5b8235915060208301356117b28161170d565b809150509250929050565b600080604083850312156117d057600080fd5b82356117db8161170d565b946020939093013593505050565b600080604083850312156117fc57600080fd5b50508035926020909101359150565b60006020828403121561181d57600080fd5b8151801515811461170657600080fd5b634e487b7160e01b600052601160045260246000fd5b80820281158282048414176107085761070861182d565b60008261187757634e487b7160e01b600052601260045260246000fd5b500490565b808201808211156107085761070861182d565b6000600182016118a1576118a161182d565b5060010190565b818103818111156107085761070861182d56fe9b779b17422d0df92223018b32b4d1fa46e071723d6817e2486d003becc55f00a264697066735822122008dc9bcc947068f2de191f320d0c94588bf41fd0eb5692876266ae6aa888de4f64736f6c63430008180033",
  "linkReferences": {},
  "deployedLinkReferences": {}
}