{
  "_format": "hh-sol-artifact-1",
  "contractName": "PaymentGuarantor",
  "sourceName": "contracts/PaymentGuarantor.sol",
  "abi": [
    {
      "inputs": [
        {
          "internalType": "address",
          "name": "_subscriptionManager",
          "type": "address"
        },
        {
          "internalType": "uint256",
          "name": "_feeBps",
          "type": "uint256"
        },
        {
          "internalType": "uint256",
          "name": "_maxGuaranteeTtlSeconds",
          "type": "uint256"
        },
        {
          "internalType": "address",
          "name": "admin",
          "type": "address"
        }
      ],
      "stateMutability": "nonpayable",
      "type": "constructor"
    },
    {
      "inputs": [],
      "name": "AccessControlBadConfirmation",
      "type": "error"
    },
    {
      "inputs": [
        {
          "internalType": "address",
          "name": "account",
          "type": "address"
        },
        {
          "internalType": "bytes32",
          "name": "neededRole",
          "type": "bytes32"
        }
      ],
      "name": "AccessControlUnauthorizedAccount",
      "type": "error"
    },
    {
      "inputs": [],
      "name": "AlreadyFinalized",
      "type": "error"
    },
    {
      "inputs": [],
      "name": "EnforcedPause",
      "type": "error"
    },
    {
      "inputs": [],
      "name": "ExpectedPause",
      "type": "error"
    },
    {
      "inputs": [],
      "name": "GuaranteeExpired",
      "type": "error"
    },
    {
      "inputs": [],
      "name": "GuaranteeInactive",
      "type": "error"
    },
    {
      "inputs": [],
      "name": "GuaranteeNotFound",
      "type": "error"
    },
    {
      "inputs": [],
      "name": "InsufficientLiquidity",
      "type": "error"
    },
    {
      "inputs": [],
      "name": "InvalidAddress",
      "type": "error"
    },
    {
      "inputs": [],
      "name": "InvalidAmount",
      "type": "error"
    },
    {
      "inputs": [],
      "name": "NotGuaranteeOwner",
      "type": "error"
    },
    {
      "inputs": [],
      "name": "ReentrancyGuardReentrantCall",
      "type": "error"
    },
    {
      "inputs": [],
      "name": "RefundFailed",
      "type": "error"
    },
    {
      "inputs": [],
      "name": "RepayValueTooLow",
      "type": "error"
    },
    {
      "inputs": [],
      "name": "SettlementFailed",
      "type": "error"
    },
    {
      "inputs": [],
      "name": "SubscriptionInactive",
      "type": "error"
    },
    {
      "inputs": [],
      "name": "WithdrawalExceedsFreeLiquidity",
      "type": "error"
    },
    {
      "anonymous": false,
      "inputs": [
        {
          "indexed": true,
          "internalType": "bytes32",
          "name": "guaranteeId",
          "type": "bytes32"
        },
        {
          "indexed": true,
          "internalType": "address",
          "name": "cancelledBy",
          "type": "address"
        }
      ],
      "name": "GuaranteeCancelled",
      "type": "event"
    },
    {
      "anonymous": false,
      "inputs": [
        {
          "indexed": true,
          "internalType": "bytes32",
          "name": "guaranteeId",
          "type": "bytes32"
        },
        {
          "indexed": true,
          "internalType": "address",
          "name": "agent",
          "type": "address"
        },
        {
          "indexed": true,
          "internalType": "address",
          "name": "recipient",
          "type": "address"
        },
        {
          "indexed": false,
          "internalType": "uint256",
          "name": "amountWei",
          "type": "uint256"
        },
        {
          "indexed": false,
          "internalType": "uint256",
          "name": "feeWei",
          "type": "uint256"
        },
        {
          "indexed": false,
          "internalType": "uint256",
          "name": "expiresAt",
          "type": "uint256"
        }
      ],
      "name": "GuaranteeCreated",
      "type": "event"
    },
    {
      "anonymous": false,
      "inputs": [
        {
          "indexed": true,
          "internalType": "bytes32",
          "name": "guaranteeId",
          "type": "bytes32"
        },
        {
          "indexed": true,
          "internalType": "address",
          "name": "payer",
          "type": "address"
        },
        {
          "indexed": false,
          "internalType": "uint256",
          "name": "paidWei",
          "type": "uint256"
        }
      ],
      "name": "GuaranteeRepaid",
      "type": "event"
    },
    {
      "anonymous": false,
      "inputs": [
        {
          "indexed": true,
          "internalType": "bytes32",
          "name": "guaranteeId",
          "type": "bytes32"
        },
        {
          "indexed": true,
          "internalType": "bytes32",
          "name": "x402PayloadHash",
          "type": "bytes32"
        },
        {
          "indexed": true,
          "internalType": "address",
          "name": "verifier",
          "type": "address"
        },
        {
          "indexed": false,
          "internalType": "address",
          "name": "recipient",
          "type": "address"
        },
        {
          "indexed": false,
          "internalType": "uint256",
          "name": "amountWei",
          "type": "uint256"
        }
      ],
      "name": "GuaranteeSettled",
      "type": "event"
    },
    {
      "anonymous": false,
      "inputs": [
        {
          "indexed": true,
          "internalType": "bytes32",
          "name": "guaranteeId",
          "type": "bytes32"
        },
        {
          "indexed": true,
          "internalType": "bytes32",
          "name": "x402PayloadHash",
          "type": "bytes32"
        },
        {
          "indexed": true,
          "internalType": "address",
          "name": "verifier",
          "type": "address"
        }
      ],
      "name": "GuaranteeUsed",
      "type": "event"
    },
    {
      "anonymous": false,
      "inputs": [
        {
          "indexed": false,
          "internalType": "address",
          "name": "account",
          "type": "address"
        }
      ],
      "name": "Paused",
      "type": "event"
    },
    {
      "anonymous": false,
      "inputs": [
        {
          "indexed": true,
          "internalType": "address",
          "name": "funder",
          "type": "address"
        },
        {
          "indexed": false,
          "internalType": "uint256",
          "name": "amountWei",
          "type": "uint256"
        },
        {
          "indexed": false,
          "internalType": "uint256",
          "name": "poolBalance",
          "type": "uint256"
        }
      ],
      "name": "PoolFunded",
      "type": "event"
    },
    {
      "anonymous": false,
      "inputs": [
        {
          "indexed": true,
          "internalType": "address",
          "name": "to",
          "type": "address"
        },
        {
          "indexed": false,
          "internalType": "uint256",
          "name": "amountWei",
          "type": "uint256"
        },
        {
          "indexed": false,
          "internalType": "uint256",
          "name": "poolBalance",
          "type": "uint256"
        }
      ],
      "name": "PoolWithdrawn",
      "type": "event"
    },
    {
      "anonymous": false,
      "inputs": [
        {
          "indexed": true,
          "internalType": "bytes32",
          "name": "role",
          "type": "bytes32"
        },
        {
          "indexed": true,
          "internalType": "bytes32",
          "name": "previousAdminRole",
          "type": "bytes32"
        },
        {
          "indexed": true,
          "internalType": "bytes32",
          "name": "newAdminRole",
          "type": "bytes32"
        }
      ],
      "name": "RoleAdminChanged",
      "type": "event"
    },
    {
      "anonymous": false,
      "inputs": [
        {
          "indexed": true,
          "internalType": "bytes32",
          "name": "role",
          "type": "bytes32"
        },
        {
          "indexed": true,
          "internalType": "address",
          "name": "account",
          "type": "address"
        },
        {
          "indexed": true,
          "internalType": "address",
          "name": "sender",
          "type": "address"
        }
      ],
      "name": "RoleGranted",
      "type": "event"
    },
    {
      "anonymous": false,
      "inputs": [
        {
          "indexed": true,
          "internalType": "bytes32",
          "name": "role",
          "type": "bytes32"
        },
        {
          "indexed": true,
          "internalType": "address",
          "name": "account",
          "type": "address"
        },
        {
          "indexed": true,
          "internalType": "address",
          "name": "sender",
          "type": "address"
        }
      ],
      "name": "RoleRevoked",
      "type": "event"
    },
    {
      "anonymous": false,
      "inputs": [
        {
          "indexed": false,
          "internalType": "address",
          "name": "account",
          "type": "address"
        }
      ],
      "name": "Unpaused",
      "type": "event"
    },
    {
      "inputs": [],
      "name": "DEFAULT_ADMIN_ROLE",
      "outputs": [
        {
          "internalType": "bytes32",
          "name": "",
          "type": "bytes32"
        }
      ],
      "stateMutability": "view",
      "type": "function"
    },
    {
      "inputs": [],
      "name": "TREASURY_ROLE",
      "outputs": [
        {
          "internalType": "bytes32",
          "name": "",
          "type": "bytes32"
        }
      ],
      "stateMutability": "view",
      "type": "function"
    },
    {
      "inputs": [],
      "name": "VERIFIER_ROLE",
      "outputs": [
        {
          "internalType": "bytes32",
          "name": "",
          "type": "bytes32"
        }
      ],
      "stateMutability": "view",
      "type": "function"
    },
    {
      "inputs": [
        {
          "internalType": "bytes32",
          "name": "guaranteeId",
          "type": "bytes32"
        }
      ],
      "name": "cancelGuarantee",
      "outputs": [],
      "stateMutability": "nonpayable",
      "type": "function"
    },
    {
      "inputs": [
        {
          "internalType": "bytes32",
          "name": "guaranteeId",
          "type": "bytes32"
        }
      ],
      "name": "checkGuarantee",
      "outputs": [
        {
          "internalType": "bool",
          "name": "active",
          "type": "bool"
        },
        {
          "internalType": "bool",
          "name": "used",
          "type": "bool"
        },
        {
          "internalType": "bool",
          "name": "cancelled",
          "type": "bool"
        },
        {
          "internalType": "bool",
          "name": "repaid",
          "type": "bool"
        },
        {
          "internalType": "uint256",
          "name": "expiresAt",
          "type": "uint256"
        },
        {
          "internalType": "bytes32",
          "name": "payloadHash",
          "type": "bytes32"
        }
      ],
      "stateMutability": "view",
      "type": "function"
    },
    {
      "inputs": [
        {
          "internalType": "address",
          "name": "recipient",
          "type": "address"
        },
        {
          "internalType": "uint256",
          "name": "amountWei",
          "type": "uint256"
        },
        {
          "internalType": "uint256",
          "name": "ttlSeconds",
          "type": "uint256"
        }
      ],
      "name": "createGuarantee",
      "outputs": [
        {
          "internalType": "bytes32",
          "name": "guaranteeId",
          "type": "bytes32"
        }
      ],
      "stateMutability": "nonpayable",
      "type": "function"
    },
    {
      "inputs": [],
      "name": "feeBps",
      "outputs": [
        {
          "internalType": "uint256",
          "name": "",
          "type": "uint256"
        }
      ],
      "stateMutability": "view",
      "type": "function"
    },
    {
      "inputs": [],
      "name": "freeLiquidityWei",
      "outputs": [
        {
          "internalType": "uint256",
          "name": "",
          "type": "uint256"
        }
      ],
      "stateMutability": "view",
      "type": "function"
    },
    {
      "inputs": [],
      "name": "fundPool",
      "outputs": [],
      "stateMutability": "payable",
      "type": "function"
    },
    {
      "inputs": [
        {
          "internalType": "bytes32",
          "name": "role",
          "type": "bytes32"
        }
      ],
      "name": "getRoleAdmin",
      "outputs": [
        {
          "internalType": "bytes32",
          "name": "",
          "type": "bytes32"
        }
      ],
      "stateMutability": "view",
      "type": "function"
    },
    {
      "inputs": [
        {
          "internalType": "bytes32",
          "name": "role",
          "type": "bytes32"
        },
        {
          "internalType": "address",
          "name": "account",
          "type": "address"
        }
      ],
      "name": "grantRole",
      "outputs": [],
      "stateMutability": "nonpayable",
      "type": "function"
    },
    {
      "inputs": [
        {
          "internalType": "address",
          "name": "",
          "type": "address"
        }
      ],
      "name": "guaranteeNonce",
      "outputs": [
        {
          "internalType": "uint256",
          "name": "",
          "type": "uint256"
        }
      ],
      "stateMutability": "view",
      "type": "function"
    },
    {
      "inputs": [
        {
          "internalType": "bytes32",
          "name": "",
          "type": "bytes32"
        }
      ],
      "name": "guarantees",
      "outputs": [
        {
          "internalType": "address",
          "name": "agent",
          "type": "address"
        },
        {
          "internalType": "address",
          "name": "recipient",
          "type": "address"
        },
        {
          "internalType": "uint256",
          "name": "amountWei",
          "type": "uint256"
        },
        {
          "internalType": "uint256",
          "name": "feeWei",
          "type": "uint256"
        },
        {
          "internalType": "uint256",
          "name": "createdAt",
          "type": "uint256"
        },
        {
          "internalType": "uint256",
          "name": "expiresAt",
          "type": "uint256"
        },
        {
          "internalType": "bool",
          "name": "active",
          "type": "bool"
        },
        {
          "internalType": "bool",
          "name": "used",
          "type": "bool"
        },
        {
          "internalType": "bool",
          "name": "cancelled",
          "type": "bool"
        },
        {
          "internalType": "bool",
          "name": "repaid",
          "type": "bool"
        },
        {
          "internalType": "bool",
          "name": "paidOut",
          "type": "bool"
        },
        {
          "internalType": "bytes32",
          "name": "x402PayloadHash",
          "type": "bytes32"
        }
      ],
      "stateMutability": "view",
      "type": "function"
    },
    {
      "inputs": [
        {
          "internalType": "bytes32",
          "name": "role",
          "type": "bytes32"
        },
        {
          "internalType": "address",
          "name": "account",
          "type": "address"
        }
      ],
      "name": "hasRole",
      "outputs": [
        {
          "internalType": "bool",
          "name": "",
          "type": "bool"
        }
      ],
      "stateMutability": "view",
      "type": "function"
    },
    {
      "inputs": [
        {
          "internalType": "bytes32",
          "name": "guaranteeId",
          "type": "bytes32"
        },
        {
          "internalType": "bytes32",
          "name": "x402PayloadHash",
          "type": "bytes32"
        }
      ],
      "name": "markGuaranteeUsed",
      "outputs": [],
      "stateMutability": "nonpayable",
      "type": "function"
    },
    {
      "inputs": [],
      "name": "maxGuaranteeTtlSeconds",
      "outputs": [
        {
          "internalType": "uint256",
          "name": "",
          "type": "uint256"
        }
      ],
      "stateMutability": "view",
      "type": "function"
    },
    {
      "inputs": [
        {
          "internalType": "address",
          "name": "",
          "type": "address"
        }
      ],
      "name": "outstandingByAgent",
      "outputs": [
        {
          "internalType": "uint256",
          "name": "",
          "type": "uint256"
        }
      ],
      "stateMutability": "view",
      "type": "function"
    },
    {
      "inputs": [],
      "name": "pause",
      "outputs": [],
      "stateMutability": "nonpayable",
      "type": "function"
    },
    {
      "inputs": [],
      "name": "paused",
      "outputs": [
        {
          "internalType": "bool",
          "name": "",
          "type": "bool"
        }
      ],
      "stateMutability": "view",
      "type": "function"
    },
    {
      "inputs": [
        {
          "internalType": "bytes32",
          "name": "role",
          "type": "bytes32"
        },
        {
          "internalType": "address",
          "name": "callerConfirmation",
          "type": "address"
        }
      ],
      "name": "renounceRole",
      "outputs": [],
      "stateMutability": "nonpayable",
      "type": "function"
    },
    {
      "inputs": [
        {
          "internalType": "bytes32",
          "name": "guaranteeId",
          "type": "bytes32"
        }
      ],
      "name": "repayGuarantee",
      "outputs": [],
      "stateMutability": "payable",
      "type": "function"
    },
    {
      "inputs": [
        {
          "internalType": "bytes32",
          "name": "role",
          "type": "bytes32"
        },
        {
          "internalType": "address",
          "name": "account",
          "type": "address"
        }
      ],
      "name": "revokeRole",
      "outputs": [],
      "stateMutability": "nonpayable",
      "type": "function"
    },
    {
      "inputs": [
        {
          "internalType": "uint256",
          "name": "newFeeBps",
          "type": "uint256"
        }
      ],
      "name": "setFeeBps",
      "outputs": [],
      "stateMutability": "nonpayable",
      "type": "function"
    },
    {
      "inputs": [
        {
          "internalType": "bytes32",
          "name": "guaranteeId",
          "type": "bytes32"
        },
        {
          "internalType": "bytes32",
          "name": "x402PayloadHash",
          "type": "bytes32"
        }
      ],
      "name": "settleGuarantee",
      "outputs": [],
      "stateMutability": "nonpayable",
      "type": "function"
    },
    {
      "inputs": [],
      "name": "subscriptionManager",
      "outputs": [
        {
          "internalType": "contract ISubscriptionManager",
          "name": "",
          "type": "address"
        }
      ],
      "stateMutability": "view",
      "type": "function"
    },
    {
      "inputs": [
        {
          "internalType": "bytes4",
          "name": "interfaceId",
          "type": "bytes4"
        }
      ],
      "name": "supportsInterface",
      "outputs": [
        {
          "internalType": "bool",
          "name": "",
          "type": "bool"
        }
      ],
      "stateMutability": "view",
      "type": "function"
    },
    {
      "inputs": [],
      "name": "totalOutstandingWei",
      "outputs": [
        {
          "internalType": "uint256",
          "name": "",
          "type": "uint256"
        }
      ],
      "stateMutability": "view",
      "type": "function"
    },
    {
      "inputs": [],
      "name": "unpause",
      "outputs": [],
      "stateMutability": "nonpayable",
      "type": "function"
    },
    {
      "inputs": [
        {
          "internalType": "address payable",
          "name": "to",
          "type": "address"
        },
        {
          "internalType": "uint256",
          "name": "amountWei",
          "type": "uint256"
        }
      ],
      "name": "withdrawPool",
      "outputs": [],
      "stateMutability": "nonpayable",
      "type": "function"
    },
    {
      "stateMutability": "payable",
      "type": "receive"
    }
  ],
  "bytecode": "0x60c06040523480156200001157600080fd5b5060405162001e2e38038062001e2e833981016040819052620000349162000230565b60017f9b779b17422d0df92223018b32b4d1fa46e071723d6817e2486d003becc55f00556001600160a01b03841615806200007657506001600160a01b038116155b15620000955760405163e6c4247b60e01b815260040160405180910390fd5b611388831115620000b95760405163162908e360e11b815260040160405180910390fd5b81600003620000db5760405163162908e360e11b815260040160405180910390fd5b6001600160a01b038416608052600283905560a0829052620000ff60008262000164565b506200012c7fe1dcbdb91df27212a29bc27177c840cf2f819ecf2187432e1fac86c2dd5dfca98262000164565b50620001597f0ce23c3e399818cfee81a7ab0880f714e53d7672b08df0fa62f2843416e1ea098262000164565b50505050506200027b565b6000828152602081815260408083206001600160a01b038516845290915281205460ff1662000209576000838152602081815260408083206001600160a01b03861684529091529020805460ff19166001179055620001c03390565b6001600160a01b0316826001600160a01b0316847f2f8788117e7eff1d82e926ec794901d17c78024a50270940304540a733656f0d60405160405180910390a45060016200020d565b5060005b92915050565b80516001600160a01b03811681146200022b57600080fd5b919050565b600080600080608085870312156200024757600080fd5b620002528562000213565b93506020850151925060408501519150620002706060860162000213565b905092959194509250565b60805160a051611b7f620002af60003960008181610281015261079301526000818161062301526107eb0152611b7f6000f3fe6080604052600436106101c65760003560e01c80636557fdfe116100f7578063a2f8859d11610095578063c700678b11610064578063c700678b1461065d578063d11a57ec1461068a578063d547741f146106be578063e7705db6146106de57600080fd5b8063a2f8859d1461057a578063a85214951461059a578063b75a0b18146105ba578063bf158fd21461061157600080fd5b80637c4304ff116100d15780637c4304ff146105105780638456cb591461053057806391d1485414610545578063a217fddf1461056557600080fd5b80636557fdfe146103e357806370f37d27146104e857806372c27b62146104f057600080fd5b806324a9d853116101645780633f4ba83a1161013e5780633f4ba83a1461038b5780634bad6549146103a0578063508e6114146103b55780635c975abb146103cb57600080fd5b806324a9d853146103355780632f2ff15d1461034b57806336568abe1461036b57600080fd5b80630de89f67116101a05780630de89f67146102a357806320716304146102d05780632074f533146102f2578063248a9ca31461030557600080fd5b806301ffc9a71461020c5780630a62b100146102415780630d98f3a81461026f57600080fd5b36610207576040805134815247602082015233917fce66f10ae4269ec7bfd83e4659aed202bd4efb93d241bae453642969c2f079d3910160405180910390a2005b600080fd5b34801561021857600080fd5b5061022c61022736600461192a565b610700565b60405190151581526020015b60405180910390f35b34801561024d57600080fd5b5061026161025c366004611970565b610737565b604051908152602001610238565b34801561027b57600080fd5b506102617f000000000000000000000000000000000000000000000000000000000000000081565b3480156102af57600080fd5b506102616102be3660046119a5565b60066020526000908152604090205481565b3480156102dc57600080fd5b506102f06102eb3660046119c2565b610bc2565b005b6102f06103003660046119e4565b610dc2565b34801561031157600080fd5b506102616103203660046119e4565b60009081526020819052604090206001015490565b34801561034157600080fd5b5061026160025481565b34801561035757600080fd5b506102f06103663660046119fd565b610fe0565b34801561037757600080fd5b506102f06103863660046119fd565b61100b565b34801561039757600080fd5b506102f0611043565b3480156103ac57600080fd5b50610261611056565b3480156103c157600080fd5b5061026160035481565b3480156103d757600080fd5b5060015460ff1661022c565b3480156103ef57600080fd5b5061047a6103fe3660046119e4565b6005602081905260009182526040909120805460018201546002830154600384015460048501549585015460068601546007909601546001600160a01b039586169794909516959294919392909160ff80831692610100810482169262010000820483169263010000008304811692640100000000900416908c565b604080516001600160a01b039d8e1681529c909b1660208d0152998b019890985260608a0196909652608089019490945260a0880192909252151560c0870152151560e086015215156101008501521515610120840152151561014083015261016082015261018001610238565b6102f0611079565b3480156104fc57600080fd5b506102f061050b3660046119e4565b6110de565b34801561051c57600080fd5b506102f061052b366004611a2d565b611112565b34801561053c57600080fd5b506102f061128c565b34801561055157600080fd5b5061022c6105603660046119fd565b61129f565b34801561057157600080fd5b50610261600081565b34801561058657600080fd5b506102f06105953660046119e4565b6112c8565b3480156105a657600080fd5b506102f06105b53660046119c2565b611484565b3480156105c657600080fd5b506105da6105d53660046119e4565b611570565b60408051961515875294151560208701529215159385019390935215156060840152608083019190915260a082015260c001610238565b34801561061d57600080fd5b506106457f000000000000000000000000000000000000000000000000000000000000000081565b6040516001600160a01b039091168152602001610238565b34801561066957600080fd5b506102616106783660046119a5565b60046020526000908152604090205481565b34801561069657600080fd5b506102617fe1dcbdb91df27212a29bc27177c840cf2f819ecf2187432e1fac86c2dd5dfca981565b3480156106ca57600080fd5b506102f06106d93660046119fd565b61169f565b3480156106ea57600080fd5b50610261600080516020611b2a83398151915281565b60006001600160e01b03198216637965db0b60e01b148061073157506301ffc9a760e01b6001600160e01b03198316145b92915050565b60006107416116c4565b6001600160a01b0384166107685760405163e6c4247b60e01b815260040160405180910390fd5b826000036107895760405163162908e360e11b815260040160405180910390fd5b8115806107b557507f000000000000000000000000000000000000000000000000000000000000000082115b156107d35760405163162908e360e11b815260040160405180910390fd5b604051639f8a13d760e01b81523360048201526000907f00000000000000000000000000000000000000000000000000000000000000006001600160a01b031690639f8a13d790602401602060405180830381865afa15801561083a573d6000803e3d6000fd5b505050506040513d601f19601f8201168201806040525081019061085e9190611a59565b90508061087e576040516349e541ff60e11b815260040160405180910390fd5b610886611056565b8411156108a65760405163bb55fd2760e01b815260040160405180910390fd5b6000612710600254866108b99190611a91565b6108c39190611aa8565b905060006108d18542611aca565b336000818152600660205260408120805493945091928a928a928a92469290916108fa83611add565b909155506040516bffffffffffffffffffffffff19606097881b811660208301529590961b909416603486015260488501929092526068840152608883015260a882015260c801604051602081830303815290604052805190602001209350604051806101800160405280336001600160a01b03168152602001886001600160a01b031681526020018781526020018381526020014281526020018281526020016001151581526020016000151581526020016000151581526020016000151581526020016000151581526020016000801b8152506005600086815260200190815260200160002060008201518160000160006101000a8154816001600160a01b0302191690836001600160a01b0316021790555060208201518160010160006101000a8154816001600160a01b0302191690836001600160a01b0316021790555060408201518160020155606082015181600301556080820151816004015560a0820151816005015560c08201518160060160006101000a81548160ff02191690831515021790555060e08201518160060160016101000a81548160ff0219169083151502179055506101008201518160060160026101000a81548160ff0219169083151502179055506101208201518160060160036101000a81548160ff0219169083151502179055506101408201518160060160046101000a81548160ff02191690831515021790555061016082015181600701559050508560046000336001600160a01b03166001600160a01b031681526020019081526020016000206000828254610b4a9190611aca565b925050819055508560036000828254610b639190611aca565b909155505060408051878152602081018490529081018290526001600160a01b03881690339086907f83eef40adf2122746b64a9b7422a805e3e80e5449a4eb10f14aebec41f72cc4d9060600160405180910390a45050509392505050565b610bca6116c4565b610bd26116ea565b600080516020611b2a833981519152610bea81611706565b600083815260056020526040902080546001600160a01b0316610c205760405163106c26d160e21b815260040160405180910390fd5b600681015460ff16610c4557604051633a3287af60e21b815260040160405180910390fd5b42816005015411610c69576040516309f3c8e960e41b815260040160405180910390fd5b60068101805464ff0000ffff191664010000010017905560078101839055600281015481546001600160a01b031660009081526004602052604081208054909190610cb5908490611af6565b9091555050600281015460038054600090610cd1908490611af6565b9091555050600181015460028201546040516000926001600160a01b031691908381818185875af1925050503d8060008114610d29576040519150601f19603f3d011682016040523d82523d6000602084013e610d2e565b606091505b5050905080610d505760405163d9c8095160e01b815260040160405180910390fd5b60018201546002830154604080516001600160a01b03909316835260208301919091523391869188917f32c6b5bca95594beb9cdaacf58987f29b0b902aef3313a2f2f22e1cfa0b4b5a7910160405180910390a4505050610dbe6001600080516020611b0a83398151915255565b5050565b610dca6116c4565b610dd26116ea565b600081815260056020526040902080546001600160a01b0316610e085760405163106c26d160e21b815260040160405180910390fd5b6006810154610100900460ff16610e3257604051633a3287af60e21b815260040160405180910390fd5b60068101546301000000900460ff1615610e5f5760405163475a253560e01b815260040160405180910390fd5b600081600301548260020154610e759190611aca565b905080341015610e9757604051621cd49360e91b815260040160405180910390fd5b60068201805463ff000000191663010000001790819055640100000000900460ff16610f0d57600282015482546001600160a01b031660009081526004602052604081208054909190610eeb908490611af6565b9091555050600282015460038054600090610f07908490611af6565b90915550505b6000610f198234611af6565b90508015610f8c57604051600090339083908381818185875af1925050503d8060008114610f63576040519150601f19603f3d011682016040523d82523d6000602084013e610f68565b606091505b5050905080610f8a57604051633c31275160e21b815260040160405180910390fd5b505b604051828152339085907ffe954b7e50973a20e60569a45457786414f0e5cf7e1c2311ad6965890cb7b4e99060200160405180910390a3505050610fdd6001600080516020611b0a83398151915255565b50565b600082815260208190526040902060010154610ffb81611706565b6110058383611710565b50505050565b6001600160a01b03811633146110345760405163334bd91960e11b815260040160405180910390fd5b61103e82826117a2565b505050565b600061104e81611706565b610fdd61180d565b600060035447116110675750600090565b6003546110749047611af6565b905090565b6110816116c4565b346000036110a25760405163162908e360e11b815260040160405180910390fd5b6040805134815247602082015233917fce66f10ae4269ec7bfd83e4659aed202bd4efb93d241bae453642969c2f079d3910160405180910390a2565b60006110e981611706565b61138882111561110c5760405163162908e360e11b815260040160405180910390fd5b50600255565b61111a6116c4565b6111226116ea565b7fe1dcbdb91df27212a29bc27177c840cf2f819ecf2187432e1fac86c2dd5dfca961114c81611706565b6001600160a01b0383166111735760405163e6c4247b60e01b815260040160405180910390fd5b816000036111945760405163162908e360e11b815260040160405180910390fd5b61119c611056565b8211156111bc5760405163a6c5a3bd60e01b815260040160405180910390fd5b6000836001600160a01b03168360405160006040518083038185875af1925050503d8060008114611209576040519150601f19603f3d011682016040523d82523d6000602084013e61120e565b606091505b505090508061123057604051633c31275160e21b815260040160405180910390fd5b604080518481524760208201526001600160a01b038616917f4e263f66e088b39f0d0855a71de61fdd97a363015db80b9b27791e61c1feb323910160405180910390a25050610dbe6001600080516020611b0a83398151915255565b600061129781611706565b610fdd61185f565b6000918252602082815260408084206001600160a01b0393909316845291905290205460ff1690565b6112d06116c4565b600081815260056020526040902080546001600160a01b03166113065760405163106c26d160e21b815260040160405180910390fd5b600681015460ff1661132b57604051633a3287af60e21b815260040160405180910390fd5b6006810154610100900460ff168061134e575060068101546301000000900460ff165b1561136c5760405163475a253560e01b815260040160405180910390fd5b42816005015411611390576040516309f3c8e960e41b815260040160405180910390fd5b80546001600160a01b031633148015906113bf57506113bd600080516020611b2a8339815191523361129f565b155b80156113d357506113d160003361129f565b155b156113f1576040516319b7f64b60e11b815260040160405180910390fd5b60068101805462ff00ff191662010000179055600281015481546001600160a01b031660009081526004602052604081208054909190611432908490611af6565b909155505060028101546003805460009061144e908490611af6565b9091555050604051339083907f2445ef187e2c65eb729546f42c15c8a642e7e9cdf5f1e95de6955422774f9ee590600090a35050565b61148c6116c4565b600080516020611b2a8339815191526114a481611706565b600083815260056020526040902080546001600160a01b03166114da5760405163106c26d160e21b815260040160405180910390fd5b600681015460ff166114ff57604051633a3287af60e21b815260040160405180910390fd5b42816005015411611523576040516309f3c8e960e41b815260040160405180910390fd5b60068101805461ffff1916610100179055600781018390556040513390849086907ff875e4e76d34680c87aa9a7fd226d6c192f2155d7f0279d0b60d5f23e1726c0490600090a450505050565b600081815260056020818152604080842081516101808101835281546001600160a01b0390811680835260018401549091169482019490945260028201549281019290925260038101546060830152600481015460808301529283015460a0820152600683015460ff808216151560c08401526101008083048216151560e085015262010000830482161515908401526301000000820481161515610120840152640100000000909104161515610140820152600790920154610160830152829182918291829182919061165857506000955085945060019350849250829150819050611696565b8060c00151801561166c5750428160a00151115b96508060e001519550806101000151945080610120015193508060a0015192508061016001519150505b91939550919395565b6000828152602081905260409020600101546116ba81611706565b61100583836117a2565b60015460ff16156116e85760405163d93c066560e01b815260040160405180910390fd5b565b6116f261189a565b6002600080516020611b0a83398151915255565b610fdd81336118ca565b600061171c838361129f565b61179a576000838152602081815260408083206001600160a01b03861684529091529020805460ff191660011790556117523390565b6001600160a01b0316826001600160a01b0316847f2f8788117e7eff1d82e926ec794901d17c78024a50270940304540a733656f0d60405160405180910390a4506001610731565b506000610731565b60006117ae838361129f565b1561179a576000838152602081815260408083206001600160a01b0386168085529252808320805460ff1916905551339286917ff6391f5c32d9c69d2a47ea670b442974b53935d1edc7fd64eb21e047a839171b9190a4506001610731565b611815611907565b6001805460ff191690557f5db9ee0a495bf2e6ff9c91a7834c1ba4fdd244a5e8aa4e537bd38aeae4b073aa335b6040516001600160a01b03909116815260200160405180910390a1565b6118676116c4565b6001805460ff1916811790557f62e78cea01bee320cd4e420270b5ea74000d11b0c9f74754ebdbfc544b05a25833611842565b600080516020611b0a833981519152546002036116e857604051633ee5aeb560e01b815260040160405180910390fd5b6118d4828261129f565b610dbe5760405163e2517d3f60e01b81526001600160a01b03821660048201526024810183905260440160405180910390fd5b60015460ff166116e857604051638dfc202b60e01b815260040160405180910390fd5b60006020828403121561193c57600080fd5b81356001600160e01b03198116811461195457600080fd5b9392505050565b6001600160a01b0381168114610fdd57600080fd5b60008060006060848603121561198557600080fd5b83356119908161195b565b95602085013595506040909401359392505050565b6000602082840312156119b757600080fd5b81356119548161195b565b600080604083850312156119d557600080fd5b50508035926020909101359150565b6000602082840312156119f657600080fd5b5035919050565b60008060408385031215611a1057600080fd5b823591506020830135611a228161195b565b809150509250929050565b60008060408385031215611a4057600080fd5b8235611a4b8161195b565b946020939093013593505050565b600060208284031215611a6b57600080fd5b8151801515811461195457600080fd5b634e487b7160e01b600052601160045260246000fd5b808202811582820484141761073157610731611a7b565b600082611ac557634e487b7160e01b600052601260045260246000fd5b500490565b8082018082111561073157610731611a7b565b600060018201611aef57611aef611a7b565b5060010190565b8181038181111561073157610731611a7b56fe9b779b17422d0df92223018b32b4d1fa46e071723d6817e2486d003becc55f000ce23c3e399818cfee81a7ab0880f714e53d7672b08df0fa62f2843416e1ea09a2646970667358221220485102bb6a9c49e20e5783c5a43b5398d429447b71a1b6f7038cf4806be39b7c64736f6c63430008180033",
  "linkReferences": {},
  "deployedLinkReferences": {}
}