{"contracts/SubscriptionManager.sol":{"SubscriptionManager":{"abi":[{"inputs":[{"internalType":"uint256","name":"_pricePerDayWei","type":"uint256"}],"stateMutability":"nonpayable","type":"constructor"},{"inputs":[],"name":"EnforcedPause","type":"error"},{"inputs":[],"name":"ExpectedPause","type":"error"},{"inputs":[],"name":"InvalidAddress","type":"error"},{"inputs":[],"name":"InvalidDays","type":"error"},{"inputs":[{"internalType":"address","name":"owner","type":"address"}],"name":"OwnableInvalidOwner","type":"error"},{"inputs":[{"internalType":"address","name":"account","type":"address"}],"name":"OwnableUnauthorizedAccount","type":"error"},{"inputs":[],"name":"RefundFailed","type":"error"},{"inputs":[],"name":"Underpaid","type":"error"},{"anonymous":false,"inputs":[{"indexed":true,"internalType":"address","name":"previousOwner","type":"address"},{"indexed":true,"internalType":"address","name":"newOwner","type":"address"}],"name":"OwnershipTransferred","type":"event"},{"anonymous":false,"inputs":[{"indexed":false,"internalType":"address","name":"account","type":"address"}],"name":"Paused","type":"event"},{"anonymous":false,"inputs":[{"indexed":false,"internalType":"uint256","name":"newPricePerDayWei","type":"uint256"}],"name":"PricePerDayUpdated","type":"event"},{"anonymous":false,"inputs":[{"indexed":true,"internalType":"address","name":"agent","type":"address"},{"indexed":true,"internalType":"uint256","name":"daysPurchased","type":"uint256"},{"indexed":false,"internalType":"uint256","name":"paidWei","type":"uint256"},{"indexed":false,"internalType":"uint256","name":"expiryTimestamp","type":"uint256"}],"name":"Renewed","type":"event"},{"anonymous":false,"inputs":[{"indexed":true,"internalType":"address","name":"agent","type":"address"},{"indexed":true,"internalType":"uint256","name":"daysPurchased","type":"uint256"},{"indexed":false,"internalType":"uint256","name":"paidWei","type":"uint256"},{"indexed":false,"internalType":"uint256","name":"expiryTimestamp","type":"uint256"}],"name":"Subscribed","type":"event"},{"anonymous":false,"inputs":[{"indexed":true,"internalType":"address","name":"to","type":"address"},{"indexed":false,"internalType":"uint256","name":"amountWei","type":"uint256"}],"name":"TreasuryWithdrawn","type":"event"},{"anonymous":false,"inputs":[{"indexed":false,"internalType":"address","name":"account","type":"address"}],"name":"Unpaused","type":"event"},{"inputs":[{"internalType":"address","name":"agent","type":"address"}],"name":"checkStatus","outputs":[{"internalType":"bool","name":"active","type":"bool"},{"internalType":"uint256","name":"expiryDate","type":"uint256"},{"internalType":"uint256","name":"daysLeft","type":"uint256"},{"internalType":"uint256","name":"paymentCount","type":"uint256"}],"stateMutability":"view","type":"function"},{"inputs":[{"internalType":"address","name":"agent","type":"address"}],"name":"isActive","outputs":[{"internalType":"bool","name":"","type":"bool"}],"stateMutability":"view","type":"function"},{"inputs":[],"name":"owner","outputs":[{"internalType":"address","name":"","type":"address"}],"stateMutability":"view","type":"function"},{"inputs":[],"name":"pause","outputs":[],"stateMutability":"nonpayable","type":"function"},{"inputs":[],"name":"paused","outputs":[{"internalType":"bool","name":"","type":"bool"}],"stateMutability":"view","type":"function"},{"inputs":[{"internalType":"address","name":"","type":"address"}],"name":"paymentsMade","outputs":[{"internalType":"uint256","name":"","type":"uint256"}],"stateMutability":"view","type":"function"},{"inputs":[],"name":"pricePerDayWei","outputs":[{"internalType":"uint256","name":"","type":"uint256"}],"stateMutability":"view","type":"function"},{"inputs":[{"internalType":"uint256","name":"daysToBuy","type":"uint256"}],"name":"renew","outputs":[{"internalType":"uint256","name":"expiry","type":"uint256"}],"stateMutability":"payable","type":"function"},{"inputs":[],"name":"renounceOwnership","outputs":[],"stateMutability":"nonpayable","type":"function"},{"inputs":[{"internalType":"uint256","name":"_newPricePerDayWei","type":"uint256"}],"name":"setPricePerDayWei","outputs":[],"stateMutability":"nonpayable","type":"function"},{"inputs":[{"internalType":"uint256","name":"daysToBuy","type":"uint256"}],"name":"subscribe","outputs":[{"internalType":"uint256","name":"expiry","type":"uint256"}],"stateMutability":"payable","type":"function"},{"inputs":[{"internalType":"address","name":"","type":"address"}],"name":"subscriptionExpiry","outputs":[{"internalType":"uint256","name":"","type":"uint256"}],"stateMutability":"view","type":"function"},{"inputs":[{"internalType":"address","name":"newOwner","type":"address"}],"name":"transferOwnership","outputs":[],"stateMutability":"nonpayable","type":"function"},{"inputs":[],"name":"unpause","outputs":[],"stateMutability":"nonpayable","type":"function"},{"inputs":[{"internalType":"address payable","name":"to","type":"address"},{"internalType":"uint256","name":"amountWei","type":"uint256"}],"name":"withdrawTreasury","outputs":[],"stateMutability":"nonpayable","type":"function"},{"stateMutability":"payable","type":"receive"}],"evm":{"bytecode":{"linkReferences":{},"object":"608060405234801561001057600080fd5b50604051610b3e380380610b3e83398101604081905261002f916100d8565b338061005557604051631e4fbdf760e01b81526000600482015260240160405180910390fd5b61005e81610088565b50806000036100805760405163949ce24160e01b815260040160405180910390fd5b6003556100f1565b600080546001600160a01b038381166001600160a01b0319831681178455604051919092169283917f8be0079c531659141344cd1fd0a4f28419497f9722a3daafe3b4186f6b6457e09190a35050565b6000602082840312156100ea57600080fd5b5051919050565b610a3e806101006000396000f3fe6080604052600436106100ec5760003560e01c806360a85ef51161008a5780638da5cb5b116100595780638da5cb5b146102795780639f8a13d7146102a1578063de008bd7146102d9578063f2fde38b146102ef57600080fd5b806360a85ef514610202578063715018a61461022f5780638456cb59146102445780638bc7906c1461025957600080fd5b80633f4ba83a116100c65780633f4ba83a146101825780634a545810146101975780635baa7509146101c45780635c975abb146101d757600080fd5b80630d86419a146100f85780630f574ba71461011a578063340190ec1461014057600080fd5b366100f357005b600080fd5b34801561010457600080fd5b50610118610113366004610924565b61030f565b005b61012d610128366004610950565b61041b565b6040519081526020015b60405180910390f35b34801561014c57600080fd5b5061016061015b366004610969565b610476565b6040805194151585526020850193909352918301526060820152608001610137565b34801561018e57600080fd5b506101186104f6565b3480156101a357600080fd5b5061012d6101b2366004610969565b60026020526000908152604090205481565b61012d6101d2366004610950565b610508565b3480156101e357600080fd5b50600054600160a01b900460ff165b6040519015158152602001610137565b34801561020e57600080fd5b5061012d61021d366004610969565b60016020526000908152604090205481565b34801561023b57600080fd5b5061011861055a565b34801561025057600080fd5b5061011861056c565b34801561026557600080fd5b50610118610274366004610950565b61057c565b34801561028557600080fd5b506000546040516001600160a01b039091168152602001610137565b3480156102ad57600080fd5b506101f26102bc366004610969565b6001600160a01b0316600090815260016020526040902054421090565b3480156102e557600080fd5b5061012d60035481565b3480156102fb57600080fd5b5061011861030a366004610969565b6105e0565b610317610623565b6001600160a01b03821661033e5760405163e6c4247b60e01b815260040160405180910390fd5b4781111561035f5760405163949ce24160e01b815260040160405180910390fd5b6000826001600160a01b03168260405160006040518083038185875af1925050503d80600081146103ac576040519150601f19603f3d011682016040523d82523d6000602084013e6103b1565b606091505b50509050806103d357604051633c31275160e21b815260040160405180910390fd5b826001600160a01b03167f41fdd680478135993bc53fb2ffaf9560951b57ef62ff6badd02b61e018b4f17f8360405161040e91815260200190565b60405180910390a2505050565b6000610425610650565b61043033833461067b565b6040805134815260208101839052919250839133917f5ad333a6d56a7ddb1e78d9ecb8047e9dafcb890a41a227ede8d950259a1f0f7591015b60405180910390a3919050565b6001600160a01b0381166000908152600160205260408120544281119180836104a05760006104d1565b6201518060016104b042866109a3565b6104bd90620151806109bc565b6104c791906109a3565b6104d191906109cf565b6001600160a01b03909516600090815260026020526040902054939592949392915050565b6104fe610623565b6105066107fd565b565b6000610512610650565b61051d33833461067b565b6040805134815260208101839052919250839133917f97d5a61531816e9a24ba9de00a9c6c7e9e779fe86f65ee2f1da5c2699a31831c9101610469565b610562610623565b6105066000610852565b610574610623565b6105066108a2565b610584610623565b806000036105a55760405163949ce24160e01b815260040160405180910390fd5b60038190556040518181527f97f6e2568eb783e5bc7280892b7c49aaf81a5101fb22ea2e1bb4c568cc45ea879060200160405180910390a150565b6105e8610623565b6001600160a01b03811661061757604051631e4fbdf760e01b8152600060048201526024015b60405180910390fd5b61062081610852565b50565b6000546001600160a01b031633146105065760405163118cdaa760e01b815233600482015260240161060e565b600054600160a01b900460ff16156105065760405163d93c066560e01b815260040160405180910390fd5b60008260000361069e57604051630bbebb3360e31b815260040160405180910390fd5b6000600354846106ae91906109f1565b9050808310156106d15760405163949ce24160e01b815260040160405180910390fd5b6001600160a01b03851660009081526001602052604081205442106106f65742610710565b6001600160a01b0386166000908152600160205260409020545b905061071f85620151806109f1565b61072990826109bc565b6001600160a01b038716600090815260016020818152604080842085905560029091528220805493965090929091906107639084906109bc565b909155506000905061077583866109a3565b905080156107f3576000876001600160a01b03168260405160006040518083038185875af1925050503d80600081146107ca576040519150601f19603f3d011682016040523d82523d6000602084013e6107cf565b606091505b50509050806107f157604051633c31275160e21b815260040160405180910390fd5b505b5050509392505050565b6108056108e5565b6000805460ff60a01b191690557f5db9ee0a495bf2e6ff9c91a7834c1ba4fdd244a5e8aa4e537bd38aeae4b073aa335b6040516001600160a01b03909116815260200160405180910390a1565b600080546001600160a01b038381166001600160a01b0319831681178455604051919092169283917f8be0079c531659141344cd1fd0a4f28419497f9722a3daafe3b4186f6b6457e09190a35050565b6108aa610650565b6000805460ff60a01b1916600160a01b1790557f62e78cea01bee320cd4e420270b5ea74000d11b0c9f74754ebdbfc544b05a2586108353390565b600054600160a01b900460ff1661050657604051638dfc202b60e01b815260040160405180910390fd5b6001600160a01b038116811461062057600080fd5b6000806040838503121561093757600080fd5b82356109428161090f565b946020939093013593505050565b60006020828403121561096257600080fd5b5035919050565b60006020828403121561097b57600080fd5b81356109868161090f565b9392505050565b634e487b7160e01b600052601160045260246000fd5b818103818111156109b6576109b661098d565b92915050565b808201808211156109b6576109b661098d565b6000826109ec57634e487b7160e01b600052601260045260246000fd5b500490565b80820281158282048414176109b6576109b661098d56fea264697066735822122097ef2c35622417e616e4fc1d9c61d61689efc1f4898e6e60bd9deea76ab5f77864736f6c63430008180033","opcodes":"PUSH1 0x80 PUSH1 0x40 MSTORE CALLVALUE DUP1 ISZERO PUSH2 0x10 JUMPI PUSH1 0x0 DUP1 REVERT JUMPDEST POP PUSH1 0x40 MLOAD PUSH2 0xB3E CODESIZE SUB DUP1 PUSH2 0xB3E DUP4 CODECOPY DUP2 ADD PUSH1 0x40 DUP2 SWAP1 MSTORE PUSH2 0x2F SWAP2 PUSH2 0xD8 JUMP JUMPDEST CALLER DUP1 PUSH2 0x55 JUMPI PUSH1 0x40 MLOAD PUSH4 0x1E4FBDF7 PUSH1 0xE0 SHL DUP2 MSTORE PUSH1 0x0 PUSH1 0x4 DUP3 ADD MSTORE PUSH1 0x24 ADD PUSH1 0x40 MLOAD DUP1 SWAP2 SUB SWAP1 REVERT JUMPDEST PUSH2 0x5E DUP2 PUSH2 0x88 JUMP JUMPDEST POP DUP1 PUSH1 0x0 SUB PUSH2 0x80 JUMPI PUSH1 0x40 MLOAD PUSH4 0x949CE241 PUSH1 0xE0 SHL DUP2 MSTORE PUSH1 0x4 ADD PUSH1 0x40 MLOAD DUP1 SWAP2 SUB SWAP1 REVERT JUMPDEST PUSH1 0x3 SSTORE PUSH2 0xF1 JUMP JUMPDEST PUSH1 0x0 DUP1 SLOAD PUSH1 0x1 PUSH1 0x1 PUSH1 0xA0 SHL SUB DUP4 DUP2 AND PUSH1 0x1 PUSH1 0x1 PUSH1 0xA0 SHL SUB NOT DUP4 AND DUP2 OR DUP5 SSTORE PUSH1 0x40 MLOAD SWAP2 SWAP1 SWAP3 AND SWAP3 DUP4 SWAP2 PUSH32 0x8BE0079C531659141344CD1FD0A4F28419497F9722A3DAAFE3B4186F6B6457E0 SWAP2 SWAP1 LOG3 POP POP JUMP JUMPDEST PUSH1 0x0 PUSH1 0x20 DUP3 DUP5 SUB SLT ISZERO PUSH2 0xEA JUMPI PUSH1 0x0 DUP1 REVERT JUMPDEST POP MLOAD SWAP2 SWAP1 POP JUMP JUMPDEST PUSH2 0xA3E DUP1 PUSH2 0x100 PUSH1 0x0 CODECOPY PUSH1 0x0 RETURN INVALID PUSH1 0x80 PUSH1 0x40 MSTORE PUSH1 0x4 CALLDATASIZE LT PUSH2 0xEC JUMPI PUSH1 0x0 CALLDATALOAD PUSH1 0xE0 SHR DUP1 PUSH4 0x60A85EF5 GT PUSH2 0x8A JUMPI DUP1 PUSH4 0x8DA5CB5B GT PUSH2 0x59 JUMPI DUP1 PUSH4 0x8DA5CB5B EQ PUSH2 0x279 JUMPI DUP1 PUSH4 0x9F8A13D7 EQ PUSH2 0x2A1 JUMPI DUP1 PUSH4 0xDE008BD7 EQ PUSH2 0x2D9 JUMPI DUP1 PUSH4 0xF2FDE38B EQ PUSH2 0x2EF JUMPI PUSH1 0x0 DUP1 REVERT JUMPDEST DUP1 PUSH4 0x60A85EF5 EQ PUSH2 0x202 JUMPI DUP1 PUSH4 0x715018A6 EQ PUSH2 0x22F JUMPI DUP1 PUSH4 0x8456CB59 EQ PUSH2 0x244 JUMPI DUP1 PUSH4 0x8BC7906C EQ PUSH2 0x259 JUMPI PUSH1 0x0 DUP1 REVERT JUMPDEST DUP1 PUSH4 0x3F4BA83A GT PUSH2 0xC6 JUMPI DUP1 PUSH4 0x3F4BA83A EQ PUSH2 0x182 JUMPI DUP1 PUSH4 0x4A545810 EQ PUSH2 0x197 JUMPI DUP1 PUSH4 0x5BAA7509 EQ PUSH2 0x1C4 JUMPI DUP1 PUSH4 0x5C975ABB EQ PUSH2 0x1D7 JUMPI PUSH1 0x0 DUP1 REVERT JUMPDEST DUP1 PUSH4 0xD86419A EQ PUSH2 0xF8 JUMPI DUP1 PUSH4 0xF574BA7 EQ PUSH2 0x11A JUMPI DUP1 PUSH4 0x340190EC EQ PUSH2 0x140 JUMPI PUSH1 0x0 DUP1 REVERT JUMPDEST CALLDATASIZE PUSH2 0xF3 JUMPI STOP JUMPDEST PUSH1 0x0 DUP1 REVERT JUMPDEST CALLVALUE DUP1 ISZERO PUSH2 0x104 JUMPI PUSH1 0x0 DUP1 REVERT JUMPDEST POP PUSH2 0x118 PUSH2 0x113 CALLDATASIZE PUSH1 0x4 PUSH2 0x924 JUMP JUMPDEST PUSH2 0x30F JUMP JUMPDEST STOP JUMPDEST PUSH2 0x12D PUSH2 0x128 CALLDATASIZE PUSH1 0x4 PUSH2 0x950 JUMP JUMPDEST PUSH2 0x41B JUMP JUMPDEST PUSH1 0x40 MLOAD SWAP1 DUP2 MSTORE PUSH1 0x20 ADD JUMPDEST PUSH1 0x40 MLOAD DUP1 SWAP2 SUB SWAP1 RETURN JUMPDEST CALLVALUE DUP1 ISZERO PUSH2 0x14C JUMPI PUSH1 0x0 DUP1 REVERT JUMPDEST POP PUSH2 0x160 PUSH2 0x15B CALLDATASIZE PUSH1 0x4 PUSH2 0x969 JUMP JUMPDEST PUSH2 0x476 JUMP JUMPDEST PUSH1 0x40 DUP1 MLOAD SWAP5 ISZERO ISZERO DUP6 MSTORE PUSH1 0x20 DUP6 ADD SWAP4 SWAP1 SWAP4 MSTORE SWAP2 DUP4 ADD MSTORE PUSH1 0x60 DUP3 ADD MSTORE PUSH1 0x80 ADD PUSH2 0x137 JUMP JUMPDEST CALLVALUE DUP1 ISZERO PUSH2 0x18E JUMPI PUSH1 0x0 DUP1 REVERT JUMPDEST POP PUSH2 0x118 PUSH2 0x4F6 JUMP JUMPDEST CALLVALUE DUP1 ISZERO PUSH2 0x1A3 JUMPI PUSH1 0x0 DUP1 REVERT JUMPDEST POP PUSH2 0x12D PUSH2 0x1B2 CALLDATASIZE PUSH1 0x4 PUSH2 0x969 JUMP JUMPDEST PUSH1 0x2 PUSH1 0x20 MSTORE PUSH1 0x0 SWAP1 DUP2 MSTORE PUSH1 0x40 SWAP1 KECCAK256 SLOAD DUP2 JUMP JUMPDEST PUSH2 0x12D PUSH2 0x1D2 CALLDATASIZE PUSH1 0x4 PUSH2 0x950 JUMP JUMPDEST PUSH2 0x508 JUMP JUMPDEST CALLVALUE DUP1 ISZERO PUSH2 0x1E3 JUMPI PUSH1 0x0 DUP1 REVERT JUMPDEST POP PUSH1 0x0 SLOAD PUSH1 0x1 PUSH1 0xA0 SHL SWAP1 DIV PUSH1 0xFF AND JUMPDEST PUSH1 0x40 MLOAD SWAP1 ISZERO ISZERO DUP2 MSTORE PUSH1 0x20 ADD PUSH2 0x137 JUMP JUMPDEST CALLVALUE DUP1 ISZERO PUSH2 0x20E JUMPI PUSH1 0x0 DUP1 REVERT JUMPDEST POP PUSH2 0x12D PUSH2 0x21D CALLDATASIZE PUSH1 0x4 PUSH2 0x969 JUMP JUMPDEST PUSH1 0x1 PUSH1 0x20 MSTORE PUSH1 0x0 SWAP1 DUP2 MSTORE PUSH1 0x40 SWAP1 KECCAK256 SLOAD DUP2 JUMP JUMPDEST CALLVALUE DUP1 ISZERO PUSH2 0x23B JUMPI PUSH1 0x0 DUP1 REVERT JUMPDEST POP PUSH2 0x118 PUSH2 0x55A JUMP JUMPDEST CALLVALUE DUP1 ISZERO PUSH2 0x250 JUMPI PUSH1 0x0 DUP1 REVERT JUMPDEST POP PUSH2 0x118 PUSH2 0x56C JUMP JUMPDEST CALLVALUE DUP1 ISZERO PUSH2 0x265 JUMPI PUSH1 0x0 DUP1 REVERT JUMPDEST POP PUSH2 0x118 PUSH2 0x274 CALLDATASIZE PUSH1 0x4 PUSH2 0x950 JUMP JUMPDEST PUSH2 0x57C JUMP JUMPDEST CALLVALUE DUP1 ISZERO PUSH2 0x285 JUMPI PUSH1 0x0 DUP1 REVERT JUMPDEST POP PUSH1 0x0 SLOAD PUSH1 0x40 MLOAD PUSH1 0x1 PUSH1 0x1 PUSH1 0xA0 SHL SUB SWAP1 SWAP2 AND DUP2 MSTORE PUSH1 0x20 ADD PUSH2 0x137 JUMP JUMPDEST CALLVALUE DUP1 ISZERO PUSH2 0x2AD JUMPI PUSH1 0x0 DUP1 REVERT JUMPDEST POP PUSH2 0x1F2 PUSH2 0x2BC CALLDATASIZE PUSH1 0x4 PUSH2 0x969 JUMP JUMPDEST PUSH1 0x1 PUSH1 0x1 PUSH1 0xA0 SHL SUB AND PUSH1 0x0 SWAP1 DUP2 MSTORE PUSH1 0x1 PUSH1 0x20 MSTORE PUSH1 0x40 SWAP1 KECCAK256 SLOAD TIMESTAMP LT SWAP1 JUMP JUMPDEST CALLVALUE DUP1 ISZERO PUSH2 0x2E5 JUMPI PUSH1 0x0 DUP1 REVERT JUMPDEST POP PUSH2 0x12D PUSH1 0x3 SLOAD DUP2 JUMP JUMPDEST CALLVALUE DUP1 ISZERO PUSH2 0x2FB JUMPI PUSH1 0x0 DUP1 REVERT JUMPDEST POP PUSH2 0x118 PUSH2 0x30A CALLDATASIZE PUSH1 0x4 PUSH2 0x969 JUMP JUMPDEST PUSH2 0x5E0 JUMP JUMPDEST PUSH2 0x317 PUSH2 0x623 JUMP JUMPDEST PUSH1 0x1 PUSH1 0x1 PUSH1 0xA0 SHL SUB DUP3 AND PUSH2 0x33E JUMPI PUSH1 0x40 MLOAD PUSH4 0xE6C4247B PUSH1 0xE0 SHL DUP2 MSTORE PUSH1 0x4 ADD PUSH1 0x40 MLOAD DUP1 SWAP2 SUB SWAP1 REVERT JUMPDEST SELFBALANCE DUP2 GT ISZERO PUSH2 0x35F JUMPI PUSH1 0x40 MLOAD PUSH4 0x949CE241 PUSH1 0xE0 SHL DUP2 MSTORE PUSH1 0x4 ADD PUSH1 0x40 MLOAD DUP1 SWAP2 SUB SWAP1 REVERT JUMPDEST PUSH1 0x0 DUP3 PUSH1 0x1 PUSH1 0x1 PUSH1 0xA0 SHL SUB AND DUP3 PUSH1 0x40 MLOAD PUSH1 0x0 PUSH1 0x40 MLOAD DUP1 DUP4 SUB DUP2 DUP6 DUP8 GAS CALL SWAP3 POP POP POP RETURNDATASIZE DUP1 PUSH1 0x0 DUP2 EQ PUSH2 0x3AC JUMPI PUSH1 0x40 MLOAD SWAP2 POP PUSH1 0x1F NOT PUSH1 0x3F RETURNDATASIZE ADD AND DUP3 ADD PUSH1 0x40 MSTORE RETURNDATASIZE DUP3 MSTORE RETURNDATASIZE PUSH1 0x0 PUSH1 0x20 DUP5 ADD RETURNDATACOPY PUSH2 0x3B1 JUMP JUMPDEST PUSH1 0x60 SWAP2 POP JUMPDEST POP POP SWAP1 POP DUP1 PUSH2 0x3D3 JUMPI PUSH1 0x40 MLOAD PUSH4 0x3C312751 PUSH1 0xE2 SHL DUP2 MSTORE PUSH1 0x4 ADD PUSH1 0x40 MLOAD DUP1 SWAP2 SUB SWAP1 REVERT JUMPDEST DUP3 PUSH1 0x1 PUSH1 0x1 PUSH1 0xA0 SHL SUB AND PUSH32 0x41FDD680478135993BC53FB2FFAF9560951B57EF62FF6BADD02B61E018B4F17F DUP4 PUSH1 0x40 MLOAD PUSH2 0x40E SWAP2 DUP2 MSTORE PUSH1 0x20 ADD SWAP1 JUMP JUMPDEST PUSH1 0x40 MLOAD DUP1 SWAP2 SUB SWAP1 LOG2 POP POP POP JUMP JUMPDEST PUSH1 0x0 PUSH2 0x425 PUSH2 0x650 JUMP JUMPDEST PUSH2 0x430 CALLER DUP4 CALLVALUE PUSH2 0x67B JUMP JUMPDEST PUSH1 0x40 DUP1 MLOAD CALLVALUE DUP2 MSTORE PUSH1 0x20 DUP2 ADD DUP4 SWAP1 MSTORE SWAP2 SWAP3 POP DUP4 SWAP2 CALLER SWAP2 PUSH32 0x5AD333A6D56A7DDB1E78D9ECB8047E9DAFCB890A41A227EDE8D950259A1F0F75 SWAP2 ADD JUMPDEST PUSH1 0x40 MLOAD DUP1 SWAP2 SUB SWAP1 LOG3 SWAP2 SWAP1 POP JUMP JUMPDEST PUSH1 0x1 PUSH1 0x1 PUSH1 0xA0 SHL SUB DUP2 AND PUSH1 0x0 SWAP1 DUP2 MSTORE PUSH1 0x1 PUSH1 0x20 MSTORE PUSH1 0x40 DUP2 KECCAK256 SLOAD TIMESTAMP DUP2 GT SWAP2 DUP1 DUP4 PUSH2 0x4A0 JUMPI PUSH1 0x0 PUSH2 0x4D1 JUMP JUMPDEST PUSH3 0x15180 PUSH1 0x1 PUSH2 0x4B0 TIMESTAMP DUP7 PUSH2 0x9A3 JUMP JUMPDEST PUSH2 0x4BD SWAP1 PUSH3 0x15180 PUSH2 0x9BC JUMP JUMPDEST PUSH2 0x4C7 SWAP2 SWAP1 PUSH2 0x9A3 JUMP JUMPDEST PUSH2 0x4D1 SWAP2 SWAP1 PUSH2 0x9CF JUMP JUMPDEST PUSH1 0x1 PUSH1 0x1 PUSH1 0xA0 SHL SUB SWAP1 SWAP6 AND PUSH1 0x0 SWAP1 DUP2 MSTORE PUSH1 0x2 PUSH1 0x20 MSTORE PUSH1 0x40 SWAP1 KECCAK256 SLOAD SWAP4 SWAP6 SWAP3 SWAP5 SWAP4 SWAP3 SWAP2 POP POP JUMP JUMPDEST PUSH2 0x4FE PUSH2 0x623 JUMP JUMPDEST PUSH2 0x506 PUSH2 0x7FD JUMP JUMPDEST JUMP JUMPDEST PUSH1 0x0 PUSH2 0x512 PUSH2 0x650 JUMP JUMPDEST PUSH2 0x51D CALLER DUP4 CALLVALUE PUSH2 0x67B JUMP JUMPDEST PUSH1 0x40 DUP1 MLOAD CALLVALUE DUP2 MSTORE PUSH1 0x20 DUP2 ADD DUP4 SWAP1 MSTORE SWAP2 SWAP3 POP DUP4 SWAP2 CALLER SWAP2 PUSH32 0x97D5A61531816E9A24BA9DE00A9C6C7E9E779FE86F65EE2F1DA5C2699A31831C SWAP2 ADD PUSH2 0x469 JUMP JUMPDEST PUSH2 0x562 PUSH2 0x623 JUMP JUMPDEST PUSH2 0x506 PUSH1 0x0 PUSH2 0x852 JUMP JUMPDEST PUSH2 0x574 PUSH2 0x623 JUMP JUMPDEST PUSH2 0x506 PUSH2 0x8A2 JUMP JUMPDEST PUSH2 0x584 PUSH2 0x623 JUMP JUMPDEST DUP1 PUSH1 0x0 SUB PUSH2 0x5A5 JUMPI PUSH1 0x40 MLOAD PUSH4 0x949CE241 PUSH1 0xE0 SHL DUP2 MSTORE PUSH1 0x4 ADD PUSH1 0x40 MLOAD DUP1 SWAP2 SUB SWAP1 REVERT JUMPDEST PUSH1 0x3 DUP2 SWAP1 SSTORE PUSH1 0x40 MLOAD DUP2 DUP2 MSTORE PUSH32 0x97F6E2568EB783E5BC7280892B7C49AAF81A5101FB22EA2E1BB4C568CC45EA87 SWAP1 PUSH1 0x20 ADD PUSH1 0x40 MLOAD DUP1 SWAP2 SUB SWAP1 LOG1 POP JUMP JUMPDEST PUSH2 0x5E8 PUSH2 0x623 JUMP JUMPDEST PUSH1 0x1 PUSH1 0x1 PUSH1 0xA0 SHL SUB DUP2 AND PUSH2 0x617 JUMPI PUSH1 0x40 MLOAD PUSH4 0x1E4FBDF7 PUSH1 0xE0 SHL DUP2 MSTORE PUSH1 0x0 PUSH1 0x4 DUP3 ADD MSTORE PUSH1 0x24 ADD JUMPDEST PUSH1 0x40 MLOAD DUP1 SWAP2 SUB SWAP1 REVERT JUMPDEST PUSH2 0x620 DUP2 PUSH2 0x852 JUMP JUMPDEST POP JUMP JUMPDEST PUSH1 0x0 SLOAD PUSH1 0x1 PUSH1 0x1 PUSH1 0xA0 SHL SUB AND CALLER EQ PUSH2 0x506 JUMPI PUSH1 0x40 MLOAD PUSH4 0x118CDAA7 PUSH1 0xE0 SHL DUP2 MSTORE CALLER PUSH1 0x4 DUP3 ADD MSTORE PUSH1 0x24 ADD PUSH2 0x60E JUMP JUMPDEST PUSH1 0x0 SLOAD PUSH1 0x1 PUSH1 0xA0 SHL SWAP1 DIV PUSH1 0xFF AND ISZERO PUSH2 0x506 JUMPI PUSH1 0x40 MLOAD PUSH4 0xD93C0665 PUSH1 0xE0 SHL DUP2 MSTORE PUSH1 0x4 ADD PUSH1 0x40 MLOAD DUP1 SWAP2 SUB SWAP1 REVERT JUMPDEST PUSH1 0x0 DUP3 PUSH1 0x0 SUB PUSH2 0x69E JUMPI PUSH1 0x40 MLOAD PUSH4 0xBBEBB33 PUSH1 0xE3 SHL DUP2 MSTORE PUSH1 0x4 ADD PUSH1 0x40 MLOAD DUP1 SWAP2 SUB SWAP1 REVERT JUMPDEST PUSH1 0x0 PUSH1 0x3 SLOAD DUP5 PUSH2 0x6AE SWAP2 SWAP1 PUSH2 0x9F1 JUMP JUMPDEST SWAP1 POP DUP1 DUP4 LT ISZERO PUSH2 0x6D1 JUMPI PUSH1 0x40 MLOAD PUSH4 0x949CE241 PUSH1 0xE0 SHL DUP2 MSTORE PUSH1 0x4 ADD PUSH1 0x40 MLOAD DUP1 SWAP2 SUB SWAP1 REVERT JUMPDEST PUSH1 0x1 PUSH1 0x1 PUSH1 0xA0 SHL SUB DUP6 AND PUSH1 0x0 SWAP1 DUP2 MSTORE PUSH1 0x1 PUSH1 0x20 MSTORE PUSH1 0x40 DUP2 KECCAK256 SLOAD TIMESTAMP LT PUSH2 0x6F6 JUMPI TIMESTAMP PUSH2 0x710 JUMP JUMPDEST PUSH1 0x1 PUSH1 0x1 PUSH1 0xA0 SHL SUB DUP7 AND PUSH1 0x0 SWAP1 DUP2 MSTORE PUSH1 0x1 PUSH1 0x20 MSTORE PUSH1 0x40 SWAP1 KECCAK256 SLOAD JUMPDEST SWAP1 POP PUSH2 0x71F DUP6 PUSH3 0x15180 PUSH2 0x9F1 JUMP JUMPDEST PUSH2 0x729 SWAP1 DUP3 PUSH2 0x9BC JUMP JUMPDEST PUSH1 0x1 PUSH1 0x1 PUSH1 0xA0 SHL SUB DUP8 AND PUSH1 0x0 SWAP1 DUP2 MSTORE PUSH1 0x1 PUSH1 0x20 DUP2 DUP2 MSTORE PUSH1 0x40 DUP1 DUP5 KECCAK256 DUP6 SWAP1 SSTORE PUSH1 0x2 SWAP1 SWAP2 MSTORE DUP3 KECCAK256 DUP1 SLOAD SWAP4 SWAP7 POP SWAP1 SWAP3 SWAP1 SWAP2 SWAP1 PUSH2 0x763 SWAP1 DUP5 SWAP1 PUSH2 0x9BC JUMP JUMPDEST SWAP1 SWAP2 SSTORE POP PUSH1 0x0 SWAP1 POP PUSH2 0x775 DUP4 DUP7 PUSH2 0x9A3 JUMP JUMPDEST SWAP1 POP DUP1 ISZERO PUSH2 0x7F3 JUMPI PUSH1 0x0 DUP8 PUSH1 0x1 PUSH1 0x1 PUSH1 0xA0 SHL SUB AND DUP3 PUSH1 0x40 MLOAD PUSH1 0x0 PUSH1 0x40 MLOAD DUP1 DUP4 SUB DUP2 DUP6 DUP8 GAS CALL SWAP3 POP POP POP RETURNDATASIZE DUP1 PUSH1 0x0 DUP2 EQ PUSH2 0x7CA JUMPI PUSH1 0x40 MLOAD SWAP2 POP PUSH1 0x1F NOT PUSH1 0x3F RETURNDATASIZE ADD AND DUP3 ADD PUSH1 0x40 MSTORE RETURNDATASIZE DUP3 MSTORE RETURNDATASIZE PUSH1 0x0 PUSH1 0x20 DUP5 ADD RETURNDATACOPY PUSH2 0x7CF JUMP JUMPDEST PUSH1 0x60 SWAP2 POP JUMPDEST POP POP SWAP1 POP DUP1 PUSH2 0x7F1 JUMPI PUSH1 0x40 MLOAD PUSH4 0x3C312751 PUSH1 0xE2 SHL DUP2 MSTORE PUSH1 0x4 ADD PUSH1 0x40 MLOAD DUP1 SWAP2 SUB SWAP1 REVERT JUMPDEST POP JUMPDEST POP POP POP SWAP4 SWAP3 POP POP POP JUMP JUMPDEST PUSH2 0x805 PUSH2 0x8E5 JUMP JUMPDEST PUSH1 0x0 DUP1 SLOAD PUSH1 0xFF PUSH1 0xA0 SHL NOT AND SWAP1 SSTORE PUSH32 0x5DB9EE0A495BF2E6FF9C91A7834C1BA4FDD244A5E8AA4E537BD38AEAE4B073AA CALLER JUMPDEST PUSH1 0x40 MLOAD PUSH1 0x1 PUSH1 0x1 PUSH1 0xA0 SHL SUB SWAP1 SWAP2 AND DUP2 MSTORE PUSH1 0x20 ADD PUSH1 0x40 MLOAD DUP1 SWAP2 SUB SWAP1 LOG1 JUMP JUMPDEST PUSH1 0x0 DUP1 SLOAD PUSH1 0x1 PUSH1 0x1 PUSH1 0xA0 SHL SUB DUP4 DUP2 AND PUSH1 0x1 PUSH1 0x1 PUSH1 0xA0 SHL SUB NOT DUP4 AND DUP2 OR DUP5 SSTORE PUSH1 0x40 MLOAD SWAP2 SWAP1 SWAP3 AND SWAP3 DUP4 SWAP2 PUSH32 0x8BE0079C531659141344CD1FD0A4F28419497F9722A3DAAFE3B4186F6B6457E0 SWAP2 SWAP1 LOG3 POP POP JUMP JUMPDEST PUSH2 0x8AA PUSH2 0x650 JUMP JUMPDEST PUSH1 0x0 DUP1 SLOAD PUSH1 0xFF PUSH1 0xA0 SHL NOT AND PUSH1 0x1 PUSH1 0xA0 SHL OR SWAP1 SSTORE PUSH32 0x62E78CEA01BEE320CD4E420270B5EA74000D11B0C9F74754EBDBFC544B05A258 PUSH2 0x835 CALLER SWAP1 JUMP JUMPDEST PUSH1 0x0 SLOAD PUSH1 0x1 PUSH1 0xA0 SHL SWAP1 DIV PUSH1 0xFF AND PUSH2 0x506 JUMPI PUSH1 0x40 MLOAD PUSH4 0x8DFC202B PUSH1 0xE0 SHL DUP2 MSTORE PUSH1 0x4 ADD PUSH1 0x40 MLOAD DUP1 SWAP2 SUB SWAP1 REVERT JUMPDEST PUSH1 0x1 PUSH1 0x1 PUSH1 0xA0 SHL SUB DUP2 AND DUP2 EQ PUSH2 0x620 JUMPI PUSH1 0x0 DUP1 REVERT JUMPDEST PUSH1 0x0 DUP1 PUSH1 0x40 DUP4 DUP6 SUB SLT ISZERO PUSH2 0x937 JUMPI PUSH1 0x0 DUP1 REVERT JUMPDEST DUP3 CALLDATALOAD PUSH2 0x942 DUP2 PUSH2 0x90F JUMP JUMPDEST SWAP5 PUSH1 0x20 SWAP4 SWAP1 SWAP4 ADD CALLDATALOAD SWAP4 POP POP POP JUMP JUMPDEST PUSH1 0x0 PUSH1 0x20 DUP3 DUP5 SUB SLT ISZERO PUSH2 0x962 JUMPI PUSH1 0x0 DUP1 REVERT JUMPDEST POP CALLDATALOAD SWAP2 SWAP1 POP JUMP JUMPDEST PUSH1 0x0 PUSH1 0x20 DUP3 DUP5 SUB SLT ISZERO PUSH2 0x97B JUMPI PUSH1 0x0 DUP1 REVERT JUMPDEST DUP2 CALLDATALOAD PUSH2 0x986 DUP2 PUSH2 0x90F JUMP JUMPDEST SWAP4 SWAP3 POP POP POP JUMP JUMPDEST PUSH4 0x4E487B71 PUSH1 0xE0 SHL PUSH1 0x0 MSTORE PUSH1 0x11 PUSH1 0x4 MSTORE PUSH1 0x24 PUSH1 0x0 REVERT JUMPDEST DUP2 DUP2 SUB DUP2 DUP2 GT ISZERO PUSH2 0x9B6 JUMPI PUSH2 0x9B6 PUSH2 0x98D JUMP JUMPDEST SWAP3 SWAP2 POP POP JUMP JUMPDEST DUP1 DUP3 ADD DUP1 DUP3 GT ISZERO PUSH2 0x9B6 JUMPI PUSH2 0x9B6 PUSH2 0x98D JUMP JUMPDEST PUSH1 0x0 DUP3 PUSH2 0x9EC JUMPI PUSH4 0x4E487B71 PUSH1 0xE0 SHL PUSH1 0x0 MSTORE PUSH1 0x12 PUSH1 0x4 MSTORE PUSH1 0x24 PUSH1 0x0 REVERT JUMPDEST POP DIV SWAP1 JUMP JUMPDEST DUP1 DUP3 MUL DUP2 ISZERO DUP3 DUP3 DIV DUP5 EQ OR PUSH2 0x9B6 JUMPI PUSH2 0x9B6 PUSH2 0x98D JUMP INVALID LOG2 PUSH5 0x6970667358 0x22 SLT KECCAK256 SWAP8 0xEF 0x2C CALLDATALOAD PUSH3 0x2417E6 AND 0xE4 0xFC SAR SWAP13 PUSH2 0xD616 DUP10 0xEF 0xC1 DELEGATECALL DUP10 DUP15 PUSH15 0x60BD9DEEA76AB5F77864736F6C6343 STOP ADDMOD XOR STOP CALLER "},"methodIdentifiers":{"checkStatus(address)":"340190ec","isActive(address)":"9f8a13d7","owner()":"8da5cb5b","pause()":"8456cb59","paused()":"5c975abb","paymentsMade(address)":"4a545810","pricePerDayWei()":"de008bd7","renew(uint256)":"5baa7509","renounceOwnership()":"715018a6","setPricePerDayWei(uint256)":"8bc7906c","subscribe(uint256)":"0f574ba7","subscriptionExpiry(address)":"60a85ef5","transferOwnership(address)":"f2fde38b","unpause()":"3f4ba83a","withdrawTreasury(address,uint256)":"0d86419a"}}}}}