{
  "_format": "hh-sol-artifact-1",
  "contractName": "SubscriptionManager",
  "sourceName": "contracts/SubscriptionManager.sol",
  "abi": [
    {
      "inputs": [
        {
          "internalType": "uint256",
          "name": "_pricePerDayWei",
          "type": "uint256"
        }
      ],
      "stateMutability": "nonpayable",
      "type": "constructor"
    },
    {
      "inputs": [],
      "name": "EnforcedPause",
      "type": "error"
    },
    {
      "inputs": [],
      "name": "ExpectedPause",
      "type": "error"
    },
    {
      "inputs": [],
      "name": "InvalidAddress",
      "type": "error"
    },
    {
      "inputs": [],
      "name": "InvalidDays",
      "type": "error"
    },
    {
      "inputs": [
        {
          "internalType": "address",
          "name": "owner",
          "type": "address"
        }
      ],
      "name": "OwnableInvalidOwner",
      "type": "error"
    },
    {
      "inputs": [
        {
          "internalType": "address",
          "name": "account",
          "type": "address"
        }
      ],
      "name": "OwnableUnauthorizedAccount",
      "type": "error"
    },
    {
      "inputs": [],
      "name": "RefundFailed",
      "type": "error"
    },
    {
      "inputs": [],
      "name": "Underpaid",
      "type": "error"
    },
    {
      "anonymous": false,
      "inputs": [
        {
          "indexed": true,
          "internalType": "address",
          "name": "previousOwner",
          "type": "address"
        },
        {
          "indexed": true,
          "internalType": "address",
          "name": "newOwner",
          "type": "address"
        }
      ],
      "name": "OwnershipTransferred",
      "type": "event"
    },
    {
      "anonymous": false,
      "inputs": [
        {
          "indexed": false,
          "internalType": "address",
          "name": "account",
          "type": "address"
        }
      ],
      "name": "Paused",
      "type": "event"
    },
    {
      "anonymous": false,
      "inputs": [
        {
          "indexed": false,
          "internalType": "uint256",
          "name": "newPricePerDayWei",
          "type": "uint256"
        }
      ],
      "name": "PricePerDayUpdated",
      "type": "event"
    },
    {
      "anonymous": false,
      "inputs": [
        {
          "indexed": true,
          "internalType": "address",
          "name": "agent",
          "type": "address"
        },
        {
          "indexed": true,
          "internalType": "uint256",
          "name": "daysPurchased",
          "type": "uint256"
        },
        {
          "indexed": false,
          "internalType": "uint256",
          "name": "paidWei",
          "type": "uint256"
        },
        {
          "indexed": false,
          "internalType": "uint256",
          "name": "expiryTimestamp",
          "type": "uint256"
        }
      ],
      "name": "Renewed",
      "type": "event"
    },
    {
      "anonymous": false,
      "inputs": [
        {
          "indexed": true,
          "internalType": "address",
          "name": "agent",
          "type": "address"
        },
        {
          "indexed": true,
          "internalType": "uint256",
          "name": "daysPurchased",
          "type": "uint256"
        },
        {
          "indexed": false,
          "internalType": "uint256",
          "name": "paidWei",
          "type": "uint256"
        },
        {
          "indexed": false,
          "internalType": "uint256",
          "name": "expiryTimestamp",
          "type": "uint256"
        }
      ],
      "name": "Subscribed",
      "type": "event"
    },
    {
      "anonymous": false,
      "inputs": [
        {
          "indexed": true,
          "internalType": "address",
          "name": "to",
          "type": "address"
        },
        {
          "indexed": false,
          "internalType": "uint256",
          "name": "amountWei",
          "type": "uint256"
        }
      ],
      "name": "TreasuryWithdrawn",
      "type": "event"
    },
    {
      "anonymous": false,
      "inputs": [
        {
          "indexed": false,
          "internalType": "address",
          "name": "account",
          "type": "address"
        }
      ],
      "name": "Unpaused",
      "type": "event"
    },
    {
      "inputs": [
        {
          "internalType": "address",
          "name": "agent",
          "type": "address"
        }
      ],
      "name": "checkStatus",
      "outputs": [
        {
          "internalType": "bool",
          "name": "active",
          "type": "bool"
        },
        {
          "internalType": "uint256",
          "name": "expiryDate",
          "type": "uint256"
        },
        {
          "internalType": "uint256",
          "name": "daysLeft",
          "type": "uint256"
        },
        {
          "internalType": "uint256",
          "name": "paymentCount",
          "type": "uint256"
        }
      ],
      "stateMutability": "view",
      "type": "function"
    },
    {
      "inputs": [
        {
          "internalType": "address",
          "name": "agent",
          "type": "address"
        }
      ],
      "name": "isActive",
      "outputs": [
        {
          "internalType": "bool",
          "name": "",
          "type": "bool"
        }
      ],
      "stateMutability": "view",
      "type": "function"
    },
    {
      "inputs": [],
      "name": "owner",
      "outputs": [
        {
          "internalType": "address",
          "name": "",
          "type": "address"
        }
      ],
      "stateMutability": "view",
      "type": "function"
    },
    {
      "inputs": [],
      "name": "pause",
      "outputs": [],
      "stateMutability": "nonpayable",
      "type": "function"
    },
    {
      "inputs": [],
      "name": "paused",
      "outputs": [
        {
          "internalType": "bool",
          "name": "",
          "type": "bool"
        }
      ],
      "stateMutability": "view",
      "type": "function"
    },
    {
      "inputs": [
        {
          "internalType": "address",
          "name": "",
          "type": "address"
        }
      ],
      "name": "paymentsMade",
      "outputs": [
        {
          "internalType": "uint256",
          "name": "",
          "type": "uint256"
        }
      ],
      "stateMutability": "view",
      "type": "function"
    },
    {
      "inputs": [],
      "name": "pricePerDayWei",
      "outputs": [
        {
          "internalType": "uint256",
          "name": "",
          "type": "uint256"
        }
      ],
      "stateMutability": "view",
      "type": "function"
    },
    {
      "inputs": [
        {
          "internalType": "uint256",
          "name": "daysToBuy",
          "type": "uint256"
        }
      ],
      "name": "renew",
      "outputs": [
        {
          "internalType": "uint256",
          "name": "expiry",
          "type": "uint256"
        }
      ],
      "stateMutability": "payable",
      "type": "function"
    },
    {
      "inputs": [],
      "name": "renounceOwnership",
      "outputs": [],
      "stateMutability": "nonpayable",
      "type": "function"
    },
    {
      "inputs": [
        {
          "internalType": "uint256",
          "name": "_newPricePerDayWei",
          "type": "uint256"
        }
      ],
      "name": "setPricePerDayWei",
      "outputs": [],
      "stateMutability": "nonpayable",
      "type": "function"
    },
    {
      "inputs": [
        {
          "internalType": "uint256",
          "name": "daysToBuy",
          "type": "uint256"
        }
      ],
      "name": "subscribe",
      "outputs": [
        {
          "internalType": "uint256",
          "name": "expiry",
          "type": "uint256"
        }
      ],
      "stateMutability": "payable",
      "type": "function"
    },
    {
      "inputs": [
        {
          "internalType": "address",
          "name": "",
          "type": "address"
        }
      ],
      "name": "subscriptionExpiry",
      "outputs": [
        {
          "internalType": "uint256",
          "name": "",
          "type": "uint256"
        }
      ],
      "stateMutability": "view",
      "type": "function"
    },
    {
      "inputs": [
        {
          "internalType": "address",
          "name": "newOwner",
          "type": "address"
        }
      ],
      "name": "transferOwnership",
      "outputs": [],
      "stateMutability": "nonpayable",
      "type": "function"
    },
    {
      "inputs": [],
      "name": "unpause",
      "outputs": [],
      "stateMutability": "nonpayable",
      "type": "function"
    },
    {
      "inputs": [
        {
          "internalType": "address payable",
          "name": "to",
          "type": "address"
        },
        {
          "internalType": "uint256",
          "name": "amountWei",
          "type": "uint256"
        }
      ],
      "name": "withdrawTreasury",
      "outputs": [],
      "stateMutability": "nonpayable",
      "type": "function"
    },
    {
      "stateMutability": "payable",
      "type": "receive"
    }
  ],
  "bytecode": "0x608060405234801561001057600080fd5b50604051610b3e380380610b3e83398101604081905261002f916100d8565b338061005557604051631e4fbdf760e01b81526000600482015260240160405180910390fd5b61005e81610088565b50806000036100805760405163949ce24160e01b815260040160405180910390fd5b6003556100f1565b600080546001600160a01b038381166001600160a01b0319831681178455604051919092169283917f8be0079c531659141344cd1fd0a4f28419497f9722a3daafe3b4186f6b6457e09190a35050565b6000602082840312156100ea57600080fd5b5051919050565b610a3e806101006000396000f3fe6080604052600436106100ec5760003560e01c806360a85ef51161008a5780638da5cb5b116100595780638da5cb5b146102795780639f8a13d7146102a1578063de008bd7146102d9578063f2fde38b146102ef57600080fd5b806360a85ef514610202578063715018a61461022f5780638456cb59146102445780638bc7906c1461025957600080fd5b80633f4ba83a116100c65780633f4ba83a146101825780634a545810146101975780635baa7509146101c45780635c975abb146101d757600080fd5b80630d86419a146100f85780630f574ba71461011a578063340190ec1461014057600080fd5b366100f357005b600080fd5b34801561010457600080fd5b50610118610113366004610924565b61030f565b005b61012d610128366004610950565b61041b565b6040519081526020015b60405180910390f35b34801561014c57600080fd5b5061016061015b366004610969565b610476565b6040805194151585526020850193909352918301526060820152608001610137565b34801561018e57600080fd5b506101186104f6565b3480156101a357600080fd5b5061012d6101b2366004610969565b60026020526000908152604090205481565b61012d6101d2366004610950565b610508565b3480156101e357600080fd5b50600054600160a01b900460ff165b6040519015158152602001610137565b34801561020e57600080fd5b5061012d61021d366004610969565b60016020526000908152604090205481565b34801561023b57600080fd5b5061011861055a565b34801561025057600080fd5b5061011861056c565b34801561026557600080fd5b50610118610274366004610950565b61057c565b34801561028557600080fd5b506000546040516001600160a01b039091168152602001610137565b3480156102ad57600080fd5b506101f26102bc366004610969565b6001600160a01b0316600090815260016020526040902054421090565b3480156102e557600080fd5b5061012d60035481565b3480156102fb57600080fd5b5061011861030a366004610969565b6105e0565b610317610623565b6001600160a01b03821661033e5760405163e6c4247b60e01b815260040160405180910390fd5b4781111561035f5760405163949ce24160e01b815260040160405180910390fd5b6000826001600160a01b03168260405160006040518083038185875af1925050503d80600081146103ac576040519150601f19603f3d011682016040523d82523d6000602084013e6103b1565b606091505b50509050806103d357604051633c31275160e21b815260040160405180910390fd5b826001600160a01b03167f41fdd680478135993bc53fb2ffaf9560951b57ef62ff6badd02b61e018b4f17f8360405161040e91815260200190565b60405180910390a2505050565b6000610425610650565b61043033833461067b565b6040805134815260208101839052919250839133917f5ad333a6d56a7ddb1e78d9ecb8047e9dafcb890a41a227ede8d950259a1f0f7591015b60405180910390a3919050565b6001600160a01b0381166000908152600160205260408120544281119180836104a05760006104d1565b6201518060016104b042866109a3565b6104bd90620151806109bc565b6104c791906109a3565b6104d191906109cf565b6001600160a01b03909516600090815260026020526040902054939592949392915050565b6104fe610623565b6105066107fd565b565b6000610512610650565b61051d33833461067b565b6040805134815260208101839052919250839133917f97d5a61531816e9a24ba9de00a9c6c7e9e779fe86f65ee2f1da5c2699a31831c9101610469565b610562610623565b6105066000610852565b610574610623565b6105066108a2565b610584610623565b806000036105a55760405163949ce24160e01b815260040160405180910390fd5b60038190556040518181527f97f6e2568eb783e5bc7280892b7c49aaf81a5101fb22ea2e1bb4c568cc45ea879060200160405180910390a150565b6105e8610623565b6001600160a01b03811661061757604051631e4fbdf760e01b8152600060048201526024015b60405180910390fd5b61062081610852565b50565b6000546001600160a01b031633146105065760405163118cdaa760e01b815233600482015260240161060e565b600054600160a01b900460ff16156105065760405163d93c066560e01b815260040160405180910390fd5b60008260000361069e57604051630bbebb3360e31b815260040160405180910390fd5b6000600354846106ae91906109f1565b9050808310156106d15760405163949ce24160e01b815260040160405180910390fd5b6001600160a01b03851660009081526001602052604081205442106106f65742610710565b6001600160a01b0386166000908152600160205260409020545b905061071f85620151806109f1565b61072990826109bc565b6001600160a01b038716600090815260016020818152604080842085905560029091528220805493965090929091906107639084906109bc565b909155506000905061077583866109a3565b905080156107f3576000876001600160a01b03168260405160006040518083038185875af1925050503d80600081146107ca576040519150601f19603f3d011682016040523d82523d6000602084013e6107cf565b606091505b50509050806107f157604051633c31275160e21b815260040160405180910390fd5b505b5050509392505050565b6108056108e5565b6000805460ff60a01b191690557f5db9ee0a495bf2e6ff9c91a7834c1ba4fdd244a5e8aa4e537bd38aeae4b073aa335b6040516001600160a01b03909116815260200160405180910390a1565b600080546001600160a01b038381166001600160a01b0319831681178455604051919092169283917f8be0079c531659141344cd1fd0a4f28419497f9722a3daafe3b4186f6b6457e09190a35050565b6108aa610650565b6000805460ff60a01b1916600160a01b1790557f62e78cea01bee320cd4e420270b5ea74000d11b0c9f74754ebdbfc544b05a2586108353390565b600054600160a01b900460ff1661050657604051638dfc202b60e01b815260040160405180910390fd5b6001600160a01b038116811461062057600080fd5b6000806040838503121561093757600080fd5b82356109428161090f565b946020939093013593505050565b60006020828403121561096257600080fd5b5035919050565b60006020828403121561097b57600080fd5b81356109868161090f565b9392505050565b634e487b7160e01b600052601160045260246000fd5b818103818111156109b6576109b661098d565b92915050565b808201808211156109b6576109b661098d565b6000826109ec57634e487b7160e01b600052601260045260246000fd5b500490565b80820281158282048414176109b6576109b661098d56fea264697066735822122097ef2c35622417e616e4fc1d9c61d61689efc1f4898e6e60bd9deea76ab5f77864736f6c63430008180033",
  "linkReferences": {},
  "deployedLinkReferences": {}
}